:020000040800F2
:100000008806002081010008C3090008C109000812
:1000100000000000000000000000000000000000E0
:10002000000000000000000000000000C7090008F8
:100030000000000000000000C5090008C909000810
:100040009301000893010008930100089301000840
:100050009301000893010008930100089301000830
:100060009301000893010008930100089301000820
:100070009301000893010008930100089301000810
:100080009301000893010008930100089301000800
:1000900093010008930100089301000893010008F0
:1000A00093010008930100089301000893010008E0
:1000B00093010008930100089301000893010008D0
:1000C00000F002F800F04CF812A030C808382418EC
:1000D0002D18AC4201D100F043F80FCCA246AB463C
:1000E0000CA730CF2D1B083F3F197C427F1E544484
:1000F0002D090426F441641EAC4201D300F030F80F
:100100000126334200D0FB1A3343984754465D46DC
:10011000DFE70000541F0000741F0000103A02D3F4
:1001200078C878C1FAD8520701D330C830C101D598
:1001300004680C6070470000704700000023002432
:1001400000250026103A01D378C1FBD8520700D30E
:1001500030C100D50B6070471FB51FBD10B510BD75
:1001600000F04DF81146FFF7F7FF01F057FA00F0E5
:1001700065F803B4FFF7F2FF03BC00F06BF8000072
:100180000748804707480047FEE7FEE7FEE7FEE72F
:10019000FEE7FEE704480549054A064B70470000A4
:1001A000D1090008C100000888000020880600204E
:1001B000880200208802002001E004C0091F0429F1
:1001C000FBD28B0701D50280801CC90700D00270CA
:1001D000704700290BD0C30702D00270401C491E93
:1001E000022904D3830702D50280801C891EE3E71D
:1001F0000022EEE70022DFE7704770477047754640
:1002000000F024F8AE46050069465346C008C00019
:10021000854618B020B5FFF7BDFF60BCB646002686
:100220000027C0C5C0C5C0C5C0C5C0C5C0C5C0C504
:10023000C0C5403D490849008D46704710B5044689
:10024000C046C0462046FFF794FF10BD00487047E7
:100250002000002001491820ABBEFEE72600020066
:1002600070470000B0B5044600F00CF80546601C6D
:1002700002D021480078041900F004F8401BA04285
:10028000FAD3B0BD054800687047C0461A480078E8
:1002900002490A68101808607047C04680000020B4
:1002A00080B58548016810220A430260032000F0EF
:1002B00005F800F023F8002080BDC04670B5044664
:1002C0007D20C0000C4E317801F0A8FD0146844825
:1002D000006801F0A3FD00F059FB0125032C08D8AC
:1002E000002806D10025E84321462A4600F01CF8E4
:1002F0007460284670BDC0460000002082B00948E6
:1003000001680122114301600168114001910199C6
:10031000110742680A434260406808400090009814
:1003200002B0704718100240002805D4032203468B
:1003300093430A4A9A1803E00C220240064BD21853
:100340008007C00E8901C9B28140FF238340106835
:10035000984308431060704714ED00E000E400E0AB
:10036000F0B581B0002846D00446534A13680120F6
:1003700003408B4208D213680126B3430B4313603A
:10038000126832408A4237D1009121688A074B4B6C
:1003900010D54A0706D5072212021B681343474AA5
:1003A0001360464B1A68F0239A43A3681343434AE9
:1003B0001360424BC90722D13F49086801263040EB
:1003C000009A904205D90868B04308600868C007E1
:1003D00012D12078400706D5072000021968814312
:1003E000E068084318601A681007810F3548022931
:1003F00012D2044650E00126304601B0F0BD6168DB
:1004000003290DD01A1F02290FD0012912D1126819
:1004100092030646F0D511E0032926D12A4C3BE091
:100420001A6B92030646E7D508E012689201064669
:10043000E2D503E0126892070646DDD51868032668
:10044000B04308431860FFF71DFF07461C4D1B4BC8
:1004500018680C210140606880008142ACD0FFF731
:1004600011FFC01BA842F2D9C6E70321CB031349F1
:10047000896A0F240C401549095D94021A40240F23
:10048000134D2C5D9A4202D033049A4200E00E488C
:1004900001F0C4FC4443094B18680006000F0D49E5
:1004A000085CC4400E4804600320FFF707FF0026E5
:1004B000304601B0F0BDC0460020024004100240AA
:1004C0008813000000127A00006CDC023220000861
:1004D0002220000812200008014800687047C0462A
:1004E00008000020F0B587B004460120002C00D1A0
:1004F00045E204902078C007F94E05940CD071684D
:100500000C200140042900D090E03068800303D51E
:100510006068002800D120E12078800721D570682C
:100520000007800F0ED070680C210140082900D010
:100530009DE00320C003716801400120C003814297
:1005400000D094E030688007059C03D5E06801285E
:1005500000D002E13068F82188432169C9000143D5
:100560003160059C2078000724D42078400737D4D8
:100570002078C00600D4D3E005984069411D00D121
:10058000C2E0012800D030E1706B042101437163A7
:10059000706B012101437163FFF774FE0546706BB8
:1005A000800700D5B4E0FFF76DFE411B0320022950
:1005B000F5D9E4E1706AE169002900D181E0012107
:1005C00008437062FFF75EFE0546706A8007CCD470
:1005D000FFF758FE401B0228F7D9032007B0F0BDF3
:1005E000012003900107F0690840029006D1F069EC
:1005F0000843F061F0690840069006980191E14FC8
:100600003868C0054AD4039804023868204338602B
:10061000FFF738FE0546386820423FD1FFF732FE2B
:10062000401B6428F7D9032007B0F0BD7168014072
:10063000082908D10320C00371680140012000048B
:10064000814200D161E7616801204704002900D19F
:1006500017E1052900D12BE1012900D12CE101048A
:1006600032688A43326081043068884327E1306809
:10067000059CE168002936D0012108433060FFF76E
:1006800001FE05463068800700D563E7FFF7FAFDF5
:10069000401B0228F6D9032007B0F0BD05988068FA
:1006A000002800D1B6E0052800D1C9E0012800D11A
:1006B000CAE0306A039988433062306A0421884373
:1006C000C5E0012188437062FFF7DCFD0546706AD2
:1006D000800700D449E7FFF7D5FD401B0228F6D973
:1006E000032007B0F0BD012188433060FFF7CAFD49
:1006F00005463068800700D433E7FFF7C3FD411B90
:1007000003200229F5D93AE1706B04218843706314
:10071000706BF821884305998969C90001437163A9
:100720000598007880060BD571680C2001400C29D3
:1007300039D1706B800303D50598006A01280CD16C
:100740000598446A002C00D1E1E070680C2101405A
:10075000082905D1012C00D0C4E0049807B0F0BDF1
:100760000120020631680492914331604706FFF789
:1007700089FD0546022C0BD1049C3068384200D11B
:10078000DEE0FFF77FFD411B03200229F5D9F6E0EB
:100790003068384200D1BAE0FFF774FD411B0320F6
:1007A0000229F5D9EBE071680140082905D1032041
:1007B000C003716801408142BBD0706B0599096A22
:1007C000002900D1A9E001210A04104370634C0400
:1007D000FFF758FD0546706B2042B1D1FFF752FD7F
:1007E000411B03200229F6D9C9E0706B04210143A3
:1007F0007163706B012188437063FFF743FD054609
:10080000706B80078CD5FFF73DFD411B032002294B
:10081000F6D9B4E0306A039988433062306A042123
:1008200088433062584CFFF72DFD0546306A80073B
:100830001DD5FFF727FD411B0320A142F6D99EE0FD
:10084000306A042101433162306A039908433062FF
:100850004D4CFFF717FD0546306A800707D4FFF7B8
:1008600011FD401BA042F7D9032007B0F0BD02984C
:100870000028059C00D07BE6F06901998843F0616F
:1008800076E6010432688A4332608004316881432D
:100890003160FFF7F7FC0546059C3068384200D10F
:1008A0003AE6FFF7EFFC411B03206429F5D966E027
:1008B000810432680A4332600104306808433060C2
:1008C000FFF7E0FC05463068384200D024E6FFF729
:1008D000D9FC401B6428F6D9032007B0F0BDC04600
:1008E000001002400320C20370680240F16A059CB8
:1008F000A36A9A42049D0DD10F221140236B9942A5
:1009000008D191040840E16A8842284637D1002086
:1009100007B0F0BD284607B0F0BD01210A0490439E
:1009200070634C04FFF7AEFC0546706B204200D1AB
:1009300006E7FFF7A7FC411B03200229F5D91EE0BB
:10094000F06A0F218843059A116B0143F1627B2005
:10095000C00371688143D06A0843916A01437160A2
:10096000306820433060FFF78DFC04463068384221
:10097000CDD1FFF787FC011B03200229F6D907B070
:10098000F0BDC0460070004088130000401E010EFC
:1009900001D0012070470749074A506007480368A3
:1009A0000B4003218907591801600020906007213E
:1009B00011607047FFFFFF0010E000E020ED00E055
:1009C000FEE7FEE77047704780B5FFF75FFC80BD2C
:1009D00070470000F0B587B0692520240B22284617
:1009E000214601F09BF9F84E3068000608D43068C3
:1009F000000605D43068000602D430680006F3D53E
:100A00007727B7813068000608D43068000605D41F
:100A10003068000602D430680006F3D572200490D6
:100A2000B0813068000608D43068000605D430680C
:100A3000000602D430680006F3D57421B181306815
:100A4000000608D43068000605D43068000602D4D9
:100A500030680006F3D5B5813068000608D43068E8
:100A6000000605D43068000602D430680006F3D5CD
:100A70006525B5813068000608D43068000605D4C5
:100A80003068000602D430680006F3D5B4813068BF
:100A9000000608D43068000605D43068000602D489
:100AA00030680006F3D564200290B08130680006FB
:100AB00008D43068000605D43068000602D43068D7
:100AC0000006F3D56122B2813068000608D4306890
:100AD000000605D43068000602D430680006F3D55D
:100AE000B1813068000608D43068000605D430684B
:100AF000000602D430680006F3D5B28130680006E3
:100B000008D43068000605D43068000602D4306886
:100B10000006F3D50691B4813068000608D4306829
:100B2000000605D43068000602D430680006F3D50C
:100B30007320B0813168090608D43168090605D4EC
:100B40003168090602D431680906F3D57521B181EF
:100B50003168090608D43168090605D431680906E8
:100B600002D431680906F3D56323B38131680906DD
:100B700008D43168090605D43168090602D4316801
:100B80000906F3D5B3813168090608D4316809062E
:100B900005D43168090602D431680906F3D5B58158
:100BA0003168090608D43168090605D43168090698
:100BB00002D431680906F3D5B0813168090608D43A
:100BC0003168090605D43168090602D4316809067E
:100BD000F3D5039505930192B0813068000608D4DF
:100BE0003068000605D43068000602D4306800067C
:100BF000F3D50A20B08169252021012228460C4620
:100C000000F038FDC0B20B2800D0DAE030680006F2
:100C100008D43068000605D43068000602D4306875
:100C20000006F3D57720B0810699019A059B3068BC
:100C3000000608D43068000605D43068000602D4E7
:100C400030680006F3D50498B0813068000608D4F7
:100C50003068000605D43068000602D4306800060B
:100C6000F3D5B1813068000608D43068000605D499
:100C70003068000602D430680006F3D5B5813068CC
:100C8000000608D43068000605D43068000602D497
:100C900030680006F3D50398B0813068000608D4A8
:100CA0003068000605D43068000602D430680006BB
:100CB000F3D5B4813068000608D43068000605D446
:100CC0003068000602D430680006F3D50298B0817F
:100CD0003068000608D43068000605D43068000685
:100CE00002D430680006F3D5B2813068000608D41B
:100CF0003068000605D43068000602D4306800066B
:100D0000F3D5B1813068000608D43068000605D4F8
:100D10003068000602D430680006F3D5B28130682E
:100D2000000608D43068000605D43068000602D4F6
:100D300030680006F3D5B4813068000608D4306806
:100D4000000605D43068000602D430680006F3D5EA
:100D50006D20B0813068000608D43068000605D4E4
:100D60003068000602D430680006F3D5B2813068DE
:100D7000000608D43068000605D43068000602D4A6
:100D800030680006F3D5B1813068000608D43068B9
:100D9000000605D43068000602D430680006F3D59A
:100DA000B3813068000608D43068000605D4306886
:100DB000000602D430680006F3D56820B08107B081
:100DC000F0BD18490A4608E01C480040B3819778F6
:100DD000921C0B4622339A421AD033681B0608D461
:100DE00033681B0605D433681B0602D433681B0620
:100DF000F3D5B781537834682406E7D434682406E1
:100E0000E4D434682406E1D434682406F3D5DDE75D
:100E100000F0EEFE692020210B2200F07FFF07B0DA
:100E2000F0BDC04642200008F0B5012082043A49D6
:100E30000B6813430B60C2040B6813430B60C207BB
:100E4000364B1C6894431C6082071C6894431C60EA
:100E5000C2051C6814431C6082051C6894431C6016
:100E6000C4061D6825431D6084061D68A5431D60DA
:100E700044071D68A5431D6004071D6825431D60C8
:100E8000274E35680227BD43356035680543356018
:100E90000F252F03596AB943596201035F6A0F4353
:100EA0005F6229055F6A8F435F62052109055F6AFA
:100EB0000F435F62C1025F680F435F6041035F6879
:100EC0000F435F6081035F688F435F60776887438C
:100ED00077605F690F435F61716901437161F64B30
:100EE0009968114399600F490B6823430B600B68A5
:100EF00013241C430C602B020C681C430C6043043D
:100F00000C681C430C600B6813430B6010390A68B3
:100F100002430A60F0BDC0461410024000040048BD
:100F20000008004810580040F0B583B00125E904DE
:100F3000E14802680A4302606A02E0490B68134311
:100F40000B602A020B6893430B60EA020B681343A1
:100F50000B60AA020B6893430B602A040B6A1343CD
:100F60000B622A050B6A13430B62A90482680A43C9
:100F70008260FFF7B1FAE121490200F04FFFD04C47
:100F800021461039086020461C38016808220A43AF
:100F90000260016804220A4302600168294301607B
:100FA000FFF742FF2068000608D42068000605D439
:100FB0002068000602D420680006F3D56C20A081CA
:100FC0002168090608D42168090605D421680906A4
:100FD00002D421680906F3D56126A6812168090695
:100FE00008D42168090605D42168090602D42168BD
:100FF0000906F3D56221A1812168090608D4216878
:10100000090605D42168090602D421680906F3D52A
:101010003521A1812168090608D42168090605D473
:101020002168090602D421680906F3D55F21A18150
:101030002168090608D42168090605D42168090633
:1010400002D421680906F3D53121A181216809065E
:1010500008D42168090605D42168090602D421684C
:101060000906F3D53A21A1812168090608D421682F
:10107000090605D42168090602D421680906F3D5BA
:101080002025A5812168090608D42168090605D410
:101090002168090602D421680906F3D56821029166
:1010A000A1812168090608D42168090605D42168B0
:1010B000090602D421680906F3D56527A7812168AE
:1010C000090608D42168090605D42168090602D456
:1010D00021680906F3D5A0812168090608D4216892
:1010E000090605D42168090602D421680906F3D54A
:1010F000A0812068000608D42068000605D4206876
:10110000000602D420680006F3D56F200190A0816C
:1011100069200F21012200F0ADFAD32800D0D1E0E0
:101120002068000608D42068000605D42068000660
:1011300002D420680006F3D57220A0812068000642
:1011400008D42068000605D42068000602D4206870
:101150000006F3D5A7812068000608D420680006A1
:1011600005D42068000602D420680006F3D5A681C5
:101170002068000608D42068000605D42068000610
:1011800002D420680006F3D56420A08121680906F6
:1011900008D42168090605D42168090602D421680B
:1011A0000906F3D5A5812168090608D42168090636
:1011B00005D42168090602D421680906F3D5A08167
:1011C0002068000608D42068000605D420680006C0
:1011D00002D420680006F3D5A6812068000608D452
:1011E0002068000605D42068000602D420680006A6
:1011F000F3D57420A0812168090608D42168090666
:1012000005D42168090602D421680906F3D5A68110
:101210002168090608D42168090605D42168090651
:1012200002D421680906F3D5A5812168090608D4EE
:101230002168090605D42168090602D42168090637
:10124000F3D56D21A1812168090608D4216809061A
:1012500005D42168090602D421680906F3D5A681C0
:101260002168090608D42168090605D42168090601
:1012700002D421680906F3D5A0812068000608D4AD
:101280002068000605D42068000602D42068000605
:10129000F3D56320A0812068000600D50FE1206807
:1012A000000600D50BE12068000600D507E12068A4
:1012B0000006F0D503E1C0461410024000080048C3
:1012C0001C4800402068000608D42068000605D4A9
:1012D0002068000602D420680006F3D57220A081A1
:1012E0002068000608D42068000605D4206800069F
:1012F00002D420680006F3D5A7812068000608D430
:101300002068000605D42068000602D42068000684
:10131000F3D5A6812068000608D42068000605D40D
:101320002068000602D420680006F3D56420A0815E
:101330002168090608D42168090605D42168090630
:1013400002D421680906F3D5A5812168090608D4CD
:101350002168090605D42168090602D42168090616
:10136000F3D5A0812068000608D42068000605D4C3
:101370002068000602D420680006F3D5A681206804
:10138000000608D42068000605D42068000602D4B0
:1013900020680006F3D57420A0812168090608D4CE
:1013A0002168090605D42168090602D421680906C6
:1013B000F3D5A6812168090608D42168090605D459
:1013C0002168090602D421680906F3D5A5812168A0
:1013D000090608D42168090605D42168090602D443
:1013E00021680906F3D56E21A1812168090608D478
:1013F0002168090605D42168090602D42168090676
:10140000F3D50199A1812168090608D4216809064C
:1014100005D42168090602D421680906F3D5A08104
:101420002168090608D42168090605D4216809063F
:1014300002D421680906F3D5A5812168090608D4DC
:101440002168090605D42168090602D42168090625
:10145000F3D56D21A1812168090608D42168090608
:1014600005D42168090602D421680906F3D5A681AE
:101470002168090608D42168090605D421680906EF
:1014800002D421680906F3D5A0812068000608D49B
:101490002068000605D42068000602D420680006F3
:1014A000F3D56320A0812068000608D420680006D8
:1014B00005D42068000602D420680006F3D50298FF
:1014C000A08103B0F0BD000084B00120C1044F4AE8
:1014D00013680B43136003034D4C2246143A1568FE
:1014E0001D431560430315689D431560830315680C
:1014F0001D431560C30315689D43156003041568FB
:101500001D431560430415689D43156083041568E9
:101510001D43156013688B43136003221303214698
:101520000C390D689D430D6093030D689D430D605C
:1015300013040D689D430D6092040B6893430B6088
:101540000F210A042346083B1D6895431D600903CB
:101550001A688A431A60216840220392114321606D
:1015600021688022029211432160070221683943D9
:10157000216041022068019108432060FFF72AFAA8
:10158000C720C543244E0BE0206803990843314629
:10159000803120602068084020603220FEF762FE23
:1015A0006920A821022200F065F80102000A084320
:1015B00001B2C92903DB20683843164908E02068D6
:1015C000A94202DA0199084301E012490840314674
:1015D00020602068084020603220FEF743FE69202A
:1015E000AA21022200F046F80102000A084301B2D3
:1015F000C929C9DA2068A94202DA0299084301E040
:10160000029988433146C031C3E7C04614100240F6
:1016100014080048FFFDFFFFFFFEFFFF92B0FEF73A
:101620003FFE05AD281D3021FEF7E4FD00240E9499
:101630001020099001200890022005902846FEF70E
:1016400051FF002803D0EFF3108072B6FEE7049438
:10165000039402940720019001A82146FEF780FE22
:10166000002803D0EFF3108072B6FEE7FFF75CFCB2
:10167000FFF72AFFF0B588B00491204D6E1C204C76
:101680002346143B196807963140196041001868D9
:1016900005910843186018681A4908401860012726
:1016A00038041968014319601868284018601868E0
:1016B00015490840186079031868069108431860B6
:1016C000124E2068800700D5E0E12068C00628D4CB
:1016D0002068800700D5D9E12068C00621D42068A1
:1016E000800700D5D2E12068C0061AD420688007A0
:1016F00000D5CBE12068C006E3D512E0FFFBFFFF79
:1017000018580040FFFF80FFFFFFFFFD1C4800400E
:101710003068000608D43068000605D4306800063A
:1017200002D430680006F3D501972820B0813068D4
:10173000000608D43068000605D43068000602D4DC
:1017400030680006F3D54927B7813068000608D411
:101750003068000605D43068000602D43068000600
:10176000F3D53221B1813068000608D43068000614
:1017700005D43068000602D430680006F3D5432053
:101780000290B0813068000608D43068000605D4A5
:101790003068000602D430680006F3D5B1813068A5
:1017A000000608D43068000605D43068000602D46C
:1017B00030680006F3D52D20B0813068000608D4CB
:1017C0003068000605D43068000602D43068000690
:1017D000F3D53E20B0813068000608D4306800069A
:1017E00005D43068000602D430680006F3D5B7810E
:1017F0003068000608D43068000605D4306800065A
:1018000002D430680006F3D553200090B0813068D0
:10181000000608D43068000605D43068000602D4FB
:1018200030680006F3D55220B08135682D0608D403
:1018300035682D0605D435682D0602D435682D0689
:10184000F3D520250395B58135682D0608D4356874
:101850002D0605D435682D0602D435682D06F3D53E
:101860002625B58135682D0608D435682D0605D4A2
:1018700035682D0602D435682D06F3D5039DB58154
:1018800035682D0608D435682D0605D435682D0633
:1018900002D435682D06F3D5B78135682D0608D4F6
:1018A00035682D0605D435682D0602D435682D0619
:1018B000F3D5B1813168090608D43168090605D429
:1018C0003168090602D431680906F3D50299B1815D
:1018D0003168090608D43168090605D4316809065B
:1018E00002D431680906F3D55F21B18135682D0630
:1018F00008D435682D0605D435682D0602D4356820
:101900002D06F3D5B78135682D0608D435682D0628
:1019100005D435682D0602D435682D06F3D5009D13
:10192000B581019F35682D0608D435682D0605D48C
:1019300035682D0602D435682D06F3D5B0813068A0
:10194000000608D43068000605D43068000602D4CA
:1019500030680006F3D5B1813068000608D43068DD
:10196000000605D43068000602D430680006F3D5BE
:101970004E20B0813068000608D43068000605D4D7
:101980003068000602D430680006F3D54120B081EB
:101990003068000608D43068000605D430680006B8
:1019A00002D430680006F3D50298B0813068000692
:1019B00008D43068000605D43068000602D43068C8
:1019C0000006F3D54B20B0813068000608D430689B
:1019D000000605D43068000602D430680006F3D54E
:1019E0004620B0813068000608D43068000605D46F
:1019F0003068000602D430680006F3D52920B08193
:101A00003068000608D43068000605D43068000647
:101A100002D430680006F3D50398B0813068000620
:101A200008D43068000605D43068000602D4306857
:101A30000006F3D52120B0813068000608D4306854
:101A4000000605D43068000602D430680006F3D5DD
:101A50003D20B0813068000608D43068000605D407
:101A60003068000602D430680006F3D50398B081D0
:101A70003068000608D43068000605D430680006D7
:101A800002D430680006F3D53020B0812068C0064B
:101A900016D5E04D287803E0C0B2B0814D1C4878DF
:101AA00000280DD0294635682D06F5D435682D0659
:101AB000F2D435682D06EFD435682D06F3D5EBE763
:101AC000049820612068400608D42068400605D4A8
:101AD0002068400602D420684006F3D518680799AC
:101AE00008401860186805990843186018683E494E
:101AF0000840186010041968014319601868C34948
:101B000008401860B802196801431960186837491D
:101B10000840186018680699084318602068400754
:101B200014D42068C00611D5206840070ED4206860
:101B3000C0060BD52068400708D42068C00605D52C
:101B40002068400702D42068C006E7D40020002A9D
:101B500021D02168490714D42168C90611D421680D
:101B600049070ED42168C9060BD42168490708D457
:101B70002168C90605D42168490702D42168C9062D
:101B8000E7D52168C90618D40002E168C9B208186F
:101B9000521E1106DDD12168490608D42168490684
:101BA00005D42168490602D421684906F3D5B90352
:101BB0001A680A431A6008B0F0BD964D297803E010
:101BC000C9B2B181551C51780029E4D02A46356844
:101BD0002D06F5D435682D06F2D435682D06EFD4E0
:101BE00035682D06F3D5EBE7FFFF80FFFFFFFFFD14
:101BF00088B00122024030326946CA778207D20F8C
:101C000030328A774207D20F30324A770207D20F3A
:101C100030320A77C206D20F3032CA768206D20F2D
:101C200030328A764206D20F30324A76C2B2D209B8
:101C300030320A76C205D20F3032CA758205D20F11
:101C400030328A754205D20F30324A750205D20F02
:101C500030320A75C204D20F3032CA748204D20FF5
:101C600030328A744204D20F30324A740204D20FE6
:101C700030320A74C203D20F3032CA738203D20FD9
:101C800030328A734203D20F30324A73C202D20F0B
:101C90003032CA720203D20F30320A738202D20F7C
:101CA00030328A724202D20F30324A720202D20FAE
:101CB00030320A72C201D20F3032CA718201D20FA1
:101CC00030328A714201D20F30324A710201D20F92
:101CD00030320A71C200D20F3032CA708200D20F85
:101CE00030328A704200D20F30324A70C00F30302A
:101CF000494A04E090814878491C00280CD01368B8
:101D00001B06F7D413681B06F4D413681B06F1D422
:101D100013681B06F3D5EDE708B07047F0B53B4DEF
:101D20006E1C3B4C2346143B1F6837401F6040002D
:101D30001E6806431E607F2000041E6886431E60E6
:101D4000012046041F6837431F601E682E401E6036
:101D500045061E68AE431E6045031E682E431E6086
:101D60002568AD0714D42568ED0611D42568AD07A4
:101D70000ED42568ED060BD42568AD0708D4256878
:101D8000ED0605D42568AD0702D42568ED06E7D534
:101D90002568ED061ED421612168890708D42168D1
:101DA000890705D42168890702D421688907F3D5FA
:101DB00022612168490608D42168490605D42168B2
:101DC000490602D421684906F3D580031968014306
:101DD000196019E00F4B1878002815D00E4905E05E
:101DE000C0B28881531C507800280DD01A460B6869
:101DF0001B06F5D40B681B06F2D40B681B06EFD448
:101E00000B681B06F3D5EBE7F0BDC046FFFBFFFFF9
:101E1000185800400C0000201C48004043088B422A
:101E20001AD3002203098B4279D3030A8B425ED373
:101E3000030B8B4242D3030C8B4227D30902FF22B0
:101E400012BA030C8B4202D31212090203D0030B05
:101E50008B4233D31AE0D3E0411A8041401C7047D3
:101E600003460B4371D443088B42F5D30022030988
:101E70008B4254D3030A8B4239D3030B8B421DD3BD
:101E8000030C8B4202D394466EE0090AC30B8B42CB
:101E900001D3CB03C01A5241830B8B4201D38B0376
:101EA000C01A5241430B8B4201D34B03C01A52411B
:101EB000030B8B4201D30B03C01A5241C30A8B425E
:101EC00001D3CB02C01A5241830A8B4201D38B0249
:101ED000C01A5241430A8B4201D34B02C01A5241ED
:101EE000030A8B4201D30B02C01A5241CDD2C3095F
:101EF0008B4201D3CB01C01A524183098B4201D3DB
:101F00008B01C01A524143098B4201D34B01C01AC5
:101F1000524103098B4201D30B01C01A5241C3083D
:101F20008B4201D3CB00C01A524183088B4201D3AC
:101F30008B00C01A524143088B4201D34B00C01A98
:101F40005241411A524110007047CA0F00D0494215
:101F5000031000D34042534000229C4603098B42A9
:101F60002DD3030A8B4212D38901FC2212BA030A31
:101F70008B420CD3890192118B4208D389019211B3
:101F80008B4204D3890137D0921100E08909C3093B
:101F90008B4201D3CB01C01A524183098B4201D33A
:101FA0008B01C01A524143098B4201D34B01C01A25
:101FB000524103098B4201D30B01C01A5241C3089D
:101FC0008B4201D3CB00C01A524183088B4201D30C
:101FD0008B00C01A5241D9D243088B4201D34B0027
:101FE000C01A5241411A00D201465241104663467E
:101FF0005B1000D34042704763465B1000D3404201
:1020000001B50021004201D0C9430846C046C04680
:1020100002BD0000000000000000010203040607EA
:10202000080902030405060708090A0B0C0D0E0F28
:1020300010100102030405060708090A0B0C0D0E17
:102040000F1077726974652064617461206E6F741B
:10205000206D617463682C2072657472792C207213
:1020600065673A0A00000000882000080000002090
:10207000200000001C010008A8200008200000200B
:10208000680600003C010008010000000400000098
:1020900000127A00536C617665206E6F2072657352
:0820A000706F6E7365210000F2
:04000005080000C12E
:00000001FF
