:020000040800F2
:100000008806002081010008C3090008C109000812
:1000100000000000000000000000000000000000E0
:10002000000000000000000000000000C7090008F8
:100030000000000000000000C5090008C909000810
:100040009301000893010008930100089301000840
:100050009301000893010008930100089301000830
:100060009301000893010008930100089301000820
:100070009301000893010008930100089301000810
:100080009301000893010008930100089301000800
:1000900093010008930100089301000893010008F0
:1000A00093010008930100089301000893010008E0
:1000B00093010008930100089301000893010008D0
:1000C00000F002F800F04CF812A030C808382418EC
:1000D0002D18AC4201D100F043F80FCCA246AB463C
:1000E0000CA730CF2D1B083F3F197C427F1E544484
:1000F0002D090426F441641EAC4201D300F030F80F
:100100000126334200D0FB1A3343984754465D46DC
:10011000DFE70000CC3C0000EC3C0000103A02D3CA
:1001200078C878C1FAD8520701D330C830C101D598
:1001300004680C6070470000704700000023002432
:1001400000250026103A01D378C1FBD8520700D30E
:1001500030C100D50B6070471FB51FBD10B510BD75
:1001600000F04DF81146FFF7F7FF01F05FFB00F0DC
:1001700065F803B4FFF7F2FF03BC00F06BF8000072
:100180000748804707480047FEE7FEE7FEE7FEE72F
:10019000FEE7FEE704480549054A064B70470000A4
:1001A000D1090008C100000888000020880600204E
:1001B000880200208802002001E004C0091F0429F1
:1001C000FBD28B0701D50280801CC90700D00270CA
:1001D000704700290BD0C30702D00270401C491E93
:1001E000022904D3830702D50280801C891EE3E71D
:1001F0000022EEE70022DFE7704770477047754640
:1002000000F024F8AE46050069465346C008C00019
:10021000854618B020B5FFF7BDFF60BCB646002686
:100220000027C0C5C0C5C0C5C0C5C0C5C0C5C0C504
:10023000C0C5403D490849008D46704710B5044689
:10024000C046C0462046FFF794FF10BD00487047E7
:100250002000002001491820ABBEFEE72600020066
:1002600070470000B0B5044600F00CF80546601C6D
:1002700002D021480078041900F004F8401BA04285
:10028000FAD3B0BD054800687047C0461A480078E8
:1002900002490A68101808607047C04680000020B4
:1002A00080B58548016810220A430260032000F0EF
:1002B00005F800F023F8002080BDC04670B5044664
:1002C0007D20C0000C4E317803F0E6FB01468448E7
:1002D000006803F0E1FB00F059FB0125032C08D86E
:1002E000002806D10025E84321462A4600F01CF8E4
:1002F0007460284670BDC0460000002082B00948E6
:1003000001680122114301600168114001910199C6
:10031000110742680A434260406808400090009814
:1003200002B0704718100240002805D4032203468B
:1003300093430A4A9A1803E00C220240064BD21853
:100340008007C00E8901C9B28140FF238340106835
:10035000984308431060704714ED00E000E400E0AB
:10036000F0B581B0002846D00446534A13680120F6
:1003700003408B4208D213680126B3430B4313603A
:10038000126832408A4237D1009121688A074B4B6C
:1003900010D54A0706D5072212021B681343474AA5
:1003A0001360464B1A68F0239A43A3681343434AE9
:1003B0001360424BC90722D13F49086801263040EB
:1003C000009A904205D90868B04308600868C007E1
:1003D00012D12078400706D5072000021968814312
:1003E000E068084318601A681007810F3548022931
:1003F00012D2044650E00126304601B0F0BD6168DB
:1004000003290DD01A1F02290FD0012912D1126819
:1004100092030646F0D511E0032926D12A4C3BE091
:100420001A6B92030646E7D508E012689201064669
:10043000E2D503E0126892070646DDD51868032668
:10044000B04308431860FFF71DFF07461C4D1B4BC8
:1004500018680C210140606880008142ACD0FFF731
:1004600011FFC01BA842F2D9C6E70321CB031349F1
:10047000896A0F240C401549095D94021A40240F23
:10048000134D2C5D9A4202D033049A4200E00E488C
:1004900003F002FB4443094B18680006000F0D49A6
:1004A000085CC4400E4804600320FFF707FF0026E5
:1004B000304601B0F0BDC0460020024004100240AA
:1004C0008813000000127A00006CDC02AE3C0008C9
:1004D0009E3C00088E3C0008014800687047C046FA
:1004E00008000020F0B587B004460120002C00D1A0
:1004F00045E204902078C007F94E05940CD071684D
:100500000C200140042900D090E03068800303D51E
:100510006068002800D120E12078800721D570682C
:100520000007800F0ED070680C210140082900D010
:100530009DE00320C003716801400120C003814297
:1005400000D094E030688007059C03D5E06801285E
:1005500000D002E13068F82188432169C9000143D5
:100560003160059C2078000724D42078400737D4D8
:100570002078C00600D4D3E005984069411D00D121
:10058000C2E0012800D030E1706B042101437163A7
:10059000706B012101437163FFF774FE0546706BB8
:1005A000800700D5B4E0FFF76DFE411B0320022950
:1005B000F5D9E4E1706AE169002900D181E0012107
:1005C00008437062FFF75EFE0546706A8007CCD470
:1005D000FFF758FE401B0228F7D9032007B0F0BDF3
:1005E000012003900107F0690840029006D1F069EC
:1005F0000843F061F0690840069006980191E14FC8
:100600003868C0054AD4039804023868204338602B
:10061000FFF738FE0546386820423FD1FFF732FE2B
:10062000401B6428F7D9032007B0F0BD7168014072
:10063000082908D10320C00371680140012000048B
:10064000814200D161E7616801204704002900D19F
:1006500017E1052900D12BE1012900D12CE101048A
:1006600032688A43326081043068884327E1306809
:10067000059CE168002936D0012108433060FFF76E
:1006800001FE05463068800700D563E7FFF7FAFDF5
:10069000401B0228F6D9032007B0F0BD05988068FA
:1006A000002800D1B6E0052800D1C9E0012800D11A
:1006B000CAE0306A039988433062306A0421884373
:1006C000C5E0012188437062FFF7DCFD0546706AD2
:1006D000800700D449E7FFF7D5FD401B0228F6D973
:1006E000032007B0F0BD012188433060FFF7CAFD49
:1006F00005463068800700D433E7FFF7C3FD411B90
:1007000003200229F5D93AE1706B04218843706314
:10071000706BF821884305998969C90001437163A9
:100720000598007880060BD571680C2001400C29D3
:1007300039D1706B800303D50598006A01280CD16C
:100740000598446A002C00D1E1E070680C2101405A
:10075000082905D1012C00D0C4E0049807B0F0BDF1
:100760000120020631680492914331604706FFF789
:1007700089FD0546022C0BD1049C3068384200D11B
:10078000DEE0FFF77FFD411B03200229F5D9F6E0EB
:100790003068384200D1BAE0FFF774FD411B0320F6
:1007A0000229F5D9EBE071680140082905D1032041
:1007B000C003716801408142BBD0706B0599096A22
:1007C000002900D1A9E001210A04104370634C0400
:1007D000FFF758FD0546706B2042B1D1FFF752FD7F
:1007E000411B03200229F6D9C9E0706B04210143A3
:1007F0007163706B012188437063FFF743FD054609
:10080000706B80078CD5FFF73DFD411B032002294B
:10081000F6D9B4E0306A039988433062306A042123
:1008200088433062584CFFF72DFD0546306A80073B
:100830001DD5FFF727FD411B0320A142F6D99EE0FD
:10084000306A042101433162306A039908433062FF
:100850004D4CFFF717FD0546306A800707D4FFF7B8
:1008600011FD401BA042F7D9032007B0F0BD02984C
:100870000028059C00D07BE6F06901998843F0616F
:1008800076E6010432688A4332608004316881432D
:100890003160FFF7F7FC0546059C3068384200D10F
:1008A0003AE6FFF7EFFC411B03206429F5D966E027
:1008B000810432680A4332600104306808433060C2
:1008C000FFF7E0FC05463068384200D024E6FFF729
:1008D000D9FC401B6428F6D9032007B0F0BDC04600
:1008E000001002400320C20370680240F16A059CB8
:1008F000A36A9A42049D0DD10F221140236B9942A5
:1009000008D191040840E16A8842284637D1002086
:1009100007B0F0BD284607B0F0BD01210A0490439E
:1009200070634C04FFF7AEFC0546706B204200D1AB
:1009300006E7FFF7A7FC411B03200229F5D91EE0BB
:10094000F06A0F218843059A116B0143F1627B2005
:10095000C00371688143D06A0843916A01437160A2
:10096000306820433060FFF78DFC04463068384221
:10097000CDD1FFF787FC011B03200229F6D907B070
:10098000F0BDC0460070004088130000401E010EFC
:1009900001D0012070470749074A506007480368A3
:1009A0000B4003218907591801600020906007213E
:1009B00011607047FFFFFF0010E000E020ED00E055
:1009C000FEE7FEE77047704780B5FFF75FFC80BD2C
:1009D00070470000F0B581B0692420250B22204625
:1009E000294602F081FA012200942046294600F0AF
:1009F00049FFC0B20B2801D101B0F0BDC24C12E0DA
:100A00000A21A18102F0DAF9692620270B2230465B
:100A1000394602F069FA01223046394600F032FFC9
:100A2000C0B20B28E8D02168090608D4216809065D
:100A300005D42168090602D421680906F3D5772177
:100A4000A1812168090608D42168090605D4216816
:100A5000090602D421680906F3D57221A181226812
:100A6000120608D42268120605D42268120602D49F
:100A700022681206F3D5009AA2812268120608D4D1
:100A80002268120605D42268120602D422681206D1
:100A9000F3D57423A3812268120608D422681206B3
:100AA00005D42268120602D422681206F3D5652204
:100AB000A2812668360608D42668360605D426683C
:100AC000360602D426683606F3D5A5812668360692
:100AD00008D42668360605D42668360602D4266869
:100AE0003606F3D56426A6812668360608D426681D
:100AF000360605D42668360602D426683606F3D5AF
:100B00006126A68127683F0608D427683F0605D4DA
:100B100027683F0602D427683F06F3D5A3812768DC
:100B20003F0608D427683F0605D427683F0602D44D
:100B300027683F06F3D5A68127683F0608D42768B3
:100B40003F0605D427683F0602D427683F06F3D541
:100B5000A58127683F0608D427683F0605D4276883
:100B60003F0602D427683F06F3D56E27A781276882
:100B70003F0608D427683F0605D427683F0602D4FD
:100B800027683F06F3D56F27A78127683F0608D45B
:100B900027683F0605D427683F0602D427683F062A
:100BA000F3D5A38127683F0608D427683F0605D4FC
:100BB00027683F0602D427683F06F3D5A58127683A
:100BC0003F0608D427683F0605D427683F0602D4AD
:100BD00027683F06F3D56D27A78127683F0608D40D
:100BE00027683F0605D427683F0602D427683F06DA
:100BF000F3D5A6812668360608D42668360605D4BD
:100C00002668360602D426683606F3D5A381236803
:100C10001B0608D423681B0605D423681B0602D4D0
:100C200023681B06F3D56323A38123681B0608D41E
:100C300023681B0605D423681B0602D423681B0601
:100C4000F3D56823A38123681B0608D423681B06F9
:100C500005D423681B0602D423681B06F3D52C2376
:100C6000A38123681B0608D423681B0605D42368C8
:100C70001B0602D423681B06F3D5A58123681B0637
:100C800008D423681B0605D423681B0602D42368F6
:100C90001B06F3D5A1812168090608D4216809063D
:100CA00005D42168090602D421680906F3D5A2817A
:100CB0002168090608D42168090605D421680906B7
:100CC00002D421680906F3D56721A18121680906AC
:100CD00008D42168090605D42168090602D42168D0
:100CE0000906F3D53A21A1812168090600D587E6D6
:100CF0002168090600D583E62168090600D57FE64C
:100D000021680906F0D57BE61C480040F0B50120BB
:100D100082043A490B6813430B60C2040B68134307
:100D20000B60C207364B1C6894431C6082071C682A
:100D300094431C60C2051C6814431C6082051C6837
:100D400094431C60C4061D6825431D6084061D680D
:100D5000A5431D6044071D68A5431D6004071D6869
:100D600025431D60274E35680227BD433560356831
:100D7000054335600F252F03596AB94359620103B2
:100D80005F6A0F435F6229055F6A8F435F620521D7
:100D900009055F6A0F435F62C1025F680F435F60CE
:100DA00041035F680F435F6081035F688F435F604B
:100DB0007768874377605F690F435F6171690143BB
:100DC0007161F64B9968114399600F490B68234391
:100DD0000B600B6813241C430C602B020C681C4333
:100DE0000C6043040C681C430C600B6813430B60DD
:100DF00010390A6802430A60F0BDC0461410024070
:100E0000000400480008004810580040F0B583B0C6
:100E10000125E904E14802680A4302606A02E049E8
:100E20000B6813430B602A020B6893430B60EA02C2
:100E30000B6813430B60AA020B6893430B602A04F0
:100E40000B6A13430B622A050B6A13430B62A90456
:100E500082680A438260FFF73FFBE121490202F00A
:100E60001BFED04C21461039086020461C38016812
:100E700008220A430260016804220A4302600168F2
:100E800029430160FFF742FF2068000608D420686C
:100E9000000605D42068000602D420680006F3D5B9
:100EA0006C20A0812168090608D42168090605D4B0
:100EB0002168090602D421680906F3D56126A681B6
:100EC0002168090608D42168090605D421680906A5
:100ED00002D421680906F3D56221A181216809069F
:100EE00008D42168090605D42168090602D42168BE
:100EF0000906F3D53521A1812168090608D42168A6
:100F0000090605D42168090602D421680906F3D52B
:100F10005F21A1812168090608D42168090605D44A
:100F20002168090602D421680906F3D53121A1817F
:100F30002168090608D42168090605D42168090634
:100F400002D421680906F3D53A21A1812168090656
:100F500008D42168090605D42168090602D421684D
:100F60000906F3D52025A5812168090608D4216842
:100F7000090605D42168090602D421680906F3D5BB
:100F800068210291A1812168090608D42168090617
:100F900005D42168090602D421680906F3D565271E
:100FA000A7812168090608D42168090605D42168AB
:100FB000090602D421680906F3D5A0812168090633
:100FC00008D42168090605D42168090602D42168DD
:100FD0000906F3D5A0812068000608D42068000621
:100FE00005D42068000602D420680006F3D56F20DF
:100FF0000190A08169200F21012200F043FCD32839
:1010000000D0D1E02068000608D42068000605D48E
:101010002068000602D420680006F3D57220A08163
:101020002068000608D42068000605D42068000661
:1010300002D420680006F3D5A7812068000608D4F2
:101040002068000605D42068000602D42068000647
:10105000F3D5A6812068000608D42068000605D4D0
:101060002068000602D420680006F3D56420A08121
:101070002168090608D42168090605D421680906F3
:1010800002D421680906F3D5A5812168090608D490
:101090002168090605D42168090602D421680906D9
:1010A000F3D5A0812068000608D42068000605D486
:1010B0002068000602D420680006F3D5A6812068C7
:1010C000000608D42068000605D42068000602D473
:1010D00020680006F3D57420A0812168090608D491
:1010E0002168090605D42168090602D42168090689
:1010F000F3D5A6812168090608D42168090605D41C
:101100002168090602D421680906F3D5A581216862
:10111000090608D42168090605D42168090602D405
:1011200021680906F3D56D21A1812168090608D43B
:101130002168090605D42168090602D42168090638
:10114000F3D5A6812168090608D42168090605D4CB
:101150002168090602D421680906F3D5A081206818
:10116000000608D42068000605D42068000602D4D2
:1011700020680006F3D56320A0812068000600D512
:101180000FE12068000600D50BE12068000600D5BD
:1011900007E120680006F0D503E1C04614100240C4
:1011A000000800481C4800402068000608D4206859
:1011B000000605D42068000602D420680006F3D596
:1011C0007220A0812068000608D42068000605D49B
:1011D0002068000602D420680006F3D5A7812068A5
:1011E000000608D42068000605D42068000602D452
:1011F00020680006F3D5A6812068000608D4206880
:10120000000605D42068000602D420680006F3D545
:101210006420A0812168090608D42168090605D444
:101220002168090602D421680906F3D5A581216841
:10123000090608D42168090605D42168090602D4E4
:1012400021680906F3D5A0812068000608D420682B
:10125000000605D42068000602D420680006F3D5F5
:10126000A6812068000608D42068000605D42068FE
:10127000000602D420680006F3D57420A0812168FE
:10128000090608D42168090605D42168090602D494
:1012900021680906F3D5A6812168090608D42168CA
:1012A000090605D42168090602D421680906F3D588
:1012B000A5812168090608D42168090605D421689A
:1012C000090602D421680906F3D56E21A18121689F
:1012D000090608D42168090605D42168090602D444
:1012E00021680906F3D50199A1812168090608D46E
:1012F0002168090605D42168090602D42168090677
:10130000F3D5A0812168090608D42168090605D40F
:101310002168090602D421680906F3D5A581216850
:10132000090608D42168090605D42168090602D4F3
:1013300021680906F3D56D21A1812168090608D429
:101340002168090605D42168090602D42168090626
:10135000F3D5A6812168090608D42168090605D4B9
:101360002168090602D421680906F3D5A081206806
:10137000000608D42068000605D42068000602D4C0
:1013800020680006F3D56320A0812068000608D4F9
:101390002068000605D42068000602D420680006F4
:1013A000F3D50298A08103B0F0BD00008EB00120FB
:1013B000C1042F4A13680B43136003032D4D2A46C3
:1013C000143A14681C431460430314689C4314606B
:1013D000830314681C431460C30314689C431460A3
:1013E000030414681C431460430414689C43146091
:1013F000830414681C43146013688B431360032236
:10140000130329460C390C689C430C6093030C6849
:101410009C430C6013040C689C430C6092040B68A2
:1014200093430B600F210A042B46083B1C6894432E
:101430001C6009031A688A431A60296840220392D3
:101440001143296029688022029211432960020217
:1014500029680192114329604102286800910843DC
:101460002860FFF7B7FA1320C0430490EC4F0FE059
:101470001410024014080048286803990843EA49F8
:10148000803128602868084028606420FEF7EAFE62
:1014900069202821012200F0F5F90B903868000638
:1014A00008D43868000605D43868000602D43868C5
:1014B0000006F3D56C200990B8813868000608D47E
:1014C0003868000605D43868000602D4386800067B
:1014D000F3D57824BC813868000608D43868000643
:1014E00005D43868000602D438680006F3D53A20DF
:1014F0000C90B8813868000608D43868000605D416
:101500003868000602D438680006F3D50A200D902A
:10151000B8810B9801F052FC69202921012200F0CA
:10152000B1F906463868000608D43868000605D4C4
:101530003868000602D438680006F3D568200890A1
:10154000B8813868000608D43868000605D43868C1
:10155000000602D438680006F3D5BC81386800065E
:1015600008D43868000605D43868000602D4386804
:101570000006F3D50C98B8813868000608D438689E
:10158000000605D43868000602D438680006F3D592
:101590000D98B881304601F011FC0A963602386881
:1015A000000608D43868000605D43868000602D45E
:1015B00038680006F3D572200790B88138680006B5
:1015C00008D43868000605D43868000602D43868A4
:1015D0000006F3D564200690B8813868000608D468
:1015E0003868000605D43868000602D4386800065A
:1015F000F3D5BC813868000608D43868000605D4E5
:101600003868000602D438680006F3D50C98B88113
:101610000B980643304601F0D1FB3868000608D429
:101620003868000605D43868000602D43868000619
:10163000F3D50D98B88131B2152904DB28680199DA
:101640000843784909E02868049A914202DA00992F
:10165000084301E07349084073492860286808403E
:10166000286069202A21012200F00CF905903868D1
:10167000000608D43868000605D43868000602D48D
:1016800038680006F3D50998B8813868000608D490
:101690003868000605D43868000602D438680006A9
:1016A000F3D57925BD813868000608D4386800066E
:1016B00005D43868000602D438680006F3D50C98C3
:1016C000B8813868000608D43868000605D4386840
:1016D000000602D438680006F3D50D98B8810B983F
:1016E00001F06CFB69202B21012200F0CBF80446AD
:1016F0003868000608D43868000605D43868000643
:1017000002D438680006F3D50898B8813868000616
:1017100008D43868000605D43868000602D4386852
:101720000006F3D5BD813868000608D43868000685
:1017300005D43868000602D438680006F3D50C9842
:10174000B8813868000608D43868000605D43868BF
:10175000000602D438680006F3D50D98B8810A98BF
:1017600001F02CFB24023868000608D43868000613
:1017700005D43868000602D438680006F3D5079807
:10178000B8813868000608D43868000605D438687F
:10179000000602D438680006F3D50698B881386888
:1017A000000608D43868000605D43868000602D45C
:1017B00038680006F3D5BD813868000608D438685B
:1017C000000605D43868000602D438680006F3D550
:1017D0000C98B881304601F0F1FA104D38680006D7
:1017E00008D43868000605D43868000602D4386882
:1017F0000006F3D50D98B8810598044321B2152948
:1018000000DB39E62868049A914202DA029908431B
:1018100001E0029988430449C03132E614080048C7
:101820001C480040FFFDFFFFFFFEFFFF92B0FEF7E8
:1018300037FD05AD281D3021FEF7DCFC00240E9499
:101840001020099001200890022005902846FEF7FC
:1018500049FE002803D0EFF3108072B6FEE704942F
:10186000039402940720019001A82146FEF778FD19
:10187000002803D0EFF3108072B6FEE7FFF7C6FA38
:10188000FFF794FDF0B597B00291D94C651CD94B88
:1018900019680595294019604100186804910843AA
:1018A00018601868D4490840186001210D041868B0
:1018B0000395284318601868204018601868CF4CBA
:1018C0002040186008914903186806910843186081
:1018D000CB4D2868000608D42868000605D428687F
:1018E000000602D428680006F3D549201490A88188
:1018F0002868000608D42868000605D42868000671
:1019000002D428680006F3D56E21A9812868000654
:1019100008D42868000605D42868000602D4286880
:101920000006F3D52024AC812868000608D4286876
:10193000000605D42868000602D428680006F3D5FE
:101940007226AE812868000608D42868000605D4EF
:101950002868000602D428680006F3D56520169092
:10196000A8812868000608D42868000605D42868DD
:10197000000602D428680006F3D561201590A881DE
:101980002868000608D42868000605D428680006E0
:1019900002D428680006F3D564200790A88128683F
:1019A000000608D42868000605D42868000602D47A
:1019B00028680006F3D552201190A88128680006F7
:1019C00008D42868000605D42868000602D42868D0
:1019D0000006F3D51698A8812868000608D4286860
:1019E000000605D42868000602D428680006F3D54E
:1019F00067201090A8812868000608D4286800068F
:101A000005D42868000602D428680006F3D5AC8106
:101A10002868000608D42868000605D4286800064F
:101A200002D428680006F3D566201390A8812868A0
:101A3000000608D42868000605D42868000602D4E9
:101A400028680006F3D57520A8812868000608D408
:101A50002868000605D42868000602D42868000615
:101A6000F3D5A9812868000608D42868000605D4A3
:101A70002868000602D428680006F3D50A9463207B
:101A8000A8812868000608D42868000605D42868BC
:101A9000000602D428680006F3D57420A8812C68BB
:101AA000240608D42C68240605D42C68240602D405
:101AB0002C682406F3D569240E94AC812C68240686
:101AC00008D42C68240605D42C68240602D42C687B
:101AD0002406F3D56F240F94AC812C68240608D417
:101AE0002C68240605D42C68240602D42C6824060D
:101AF000F3D5A9812968090608D42968090605D4FF
:101B00002968090602D429680906F3D509962E2109
:101B10000191A9812968090608D42968090605D414
:101B20002968090602D429680906F3D50A2100911B
:101B3000A981344977240F4606E0AC813C793F1DEA
:101B40000E462C36B74236D02E68360608D42E689C
:101B5000360605D42E68360602D42E683606F3D52E
:101B6000AC817C782E68360608D42E68360605D4FB
:101B70002E68360602D42E683606F3D5AC81BC78C2
:101B80002E68360608D42E68360605D42E6836062A
:101B900002D42E683606F3D5AC81FC782E68360662
:101BA000CBD42E683606C8D42E683606C5D42E6827
:101BB0003606F3D5C1E75969890725D45969C9069D
:101BC00000D5D8E1596989071ED45969C90600D5DD
:101BD000D1E15969890717D45969C90600D5CAE105
:101BE0005969890710D45969C906E4D5C3E1C046CB
:101BF000FFFBFFFF04580040FFFF80FFFFFFFFFDDA
:101C00001C480040F53C00082968090608D42968EA
:101C1000090605D42968090602D429680906F3D5FE
:101C20002821A9812968090608D42968090605D44C
:101C30002968090602D429680906F3D51499A981EF
:101C40002968090608D42968090605D429680906FF
:101C500002D429680906F3D53227AF81296809061D
:101C600008D42968090605D42968090602D4296818
:101C70000906F3D54326AE812968090608D42968E8
:101C8000090605D42968090602D429680906F3D58E
:101C9000AF812968090608D42968090605D429688E
:101CA000090602D429680906F3D52D21A9812968DE
:101CB000090608D42968090605D42968090602D44A
:101CC00029680906F3D53E21A9812968090608D4A7
:101CD0002968090605D42968090602D42968090675
:101CE000F3D51499A9812968090608D42968090639
:101CF00005D42968090602D429680906F3D55321B9
:101D0000A9812C68240608D42C68240605D42C68E4
:101D1000240602D42C682406F3D5119CAC812C68CF
:101D2000240608D42C68240605D42C68240602D482
:101D30002C682406F3D50A9CAC812C68240608D4B0
:101D40002C68240605D42C68240602D42C682406AA
:101D5000F3D52624AC812C68240608D42C682406EC
:101D600005D42C68240602D42C682406F3D50A9CDA
:101D7000AC812C68240608D42C68240605D42C6871
:101D8000240602D42C682406F3D5149CAC812C685C
:101D9000240608D42C68240605D42C68240602D412
:101DA0002C682406F3D5AF812C68240608D42C684F
:101DB000240605D42C68240602D42C682406F3D506
:101DC000AE812C68240608D42C68240605D42C681F
:101DD000240602D42C682406F3D55F24AC812E6837
:101DE000360608D42E68360605D42E68360602D488
:101DF0002E683606F3D5149EAE812E68360608D4BA
:101E00002E68360605D42E68360602D42E683606AD
:101E1000F3D5A9812E68360608D42E68360605D477
:101E20002E68360602D42E683606F3D5119EAE8192
:101E30002E68360608D42E68360605D42E68360677
:101E400002D42E683606F3D5AC812C68240608D45B
:101E50002C68240605D42C68240602D42C68240699
:101E6000F3D55424AC81099E2C68240608D42C6830
:101E7000240605D42C68240602D42C682406F3D545
:101E80005824AC812C68240608D42C68240605D478
:101E90002C68240602D42C682406F3D5149CAC814B
:101EA0002C68240608D42C68240605D42C68240643
:101EB00002D42C682406F3D5A9812968090608D420
:101EC0002968090605D42968090602D42968090683
:101ED000F3D52921A9810A9C2968090608D4296813
:101EE000090605D42968090602D429680906F3D52C
:101EF000AC812968090608D42968090605D429682F
:101F0000090602D429680906F3D52121A981296887
:101F1000090608D42968090605D42968090602D4E7
:101F200029680906F3D53D21A9812968090608D445
:101F30002968090605D42968090602D42968090612
:101F4000F3D5AC812968090600D5C4E129680906E2
:101F500000D5C0E12968090600D5BCE12968090659
:101F6000F0D5B8E12968090608D42968090605D41E
:101F70002968090602D429680906F3D52821A98110
:101F80002968090608D42968090605D429680906BC
:101F900002D429680906F3D51499A981296809068C
:101FA00008D42968090605D42968090602D42968D5
:101FB0000906F3D53227AF812968090608D42968B4
:101FC000090605D42968090602D429680906F3D54B
:101FD0004326AE812968090608D42968090605D474
:101FE0002968090602D429680906F3D5AF81296852
:101FF000090608D42968090605D42968090602D407
:1020000029680906F3D52D21A9812968090608D474
:102010002968090605D42968090602D42968090631
:10202000F3D53E21A9812968090608D42968090643
:1020300005D42968090602D429680906F3D514993C
:10204000A9812968090608D42968090605D42968E0
:10205000090602D429680906F3D55321A9812C6801
:10206000240608D42C68240605D42C68240602D43F
:102070002C682406F3D5119CAC812C68240608D466
:102080002C68240605D42C68240602D42C68240667
:10209000F3D50A9CAC812C68240608D42C6824064D
:1020A00005D42C68240602D42C682406F3D52624F3
:1020B000AC812C68240608D42C68240605D42C682E
:1020C000240602D42C682406F3D50A9CAC812C6823
:1020D000240608D42C68240605D42C68240602D4CF
:1020E0002C682406F3D5149CAC812C68240608D4F3
:1020F0002C68240605D42C68240602D42C682406F7
:10210000F3D5AF812C68240608D42C68240605D4A6
:102110002C68240602D42C682406F3D53746AE81F9
:102120002C68240608D42C68240605D42C682406C0
:1021300002D42C682406F3D55F24AC812E683606C1
:1021400008D42E68360605D42E68360602D42E68CA
:102150003606F3D5149EAE812E68360608D42E6856
:10216000360605D42E68360602D42E683606F3D518
:10217000A9812968090608D42968090605D42968AF
:10218000090602D429680906F3D51199A981099E87
:102190002968090608D42968090605D429680906AA
:1021A00002D429680906F3D5AC812968090608D448
:1021B0002968090605D42968090602D42968090690
:1021C000F3D54E21A9810A9C2968090608D42968FB
:1021D000090605D42968090602D429680906F3D539
:1021E0004121A9812968090608D42968090605D46E
:1021F0002968090602D429680906F3D5AF81296840
:10220000090608D42968090605D42968090602D4F4
:1022100029680906F3D54B21A9812968090608D444
:102220002968090605D42968090602D4296809061F
:10223000F3D54621A9812968090608D42968090629
:1022400005D42968090602D429680906F3D529218D
:10225000A9812968090608D42968090605D42968CE
:10226000090602D429680906F3D5AC812968090654
:1022700008D42968090605D42968090602D4296802
:102280000906F3D52121A9812968090608D42968FE
:10229000090605D42968090602D429680906F3D578
:1022A0003D21A9812968090608D42968090605D4B1
:1022B0002968090602D429680906F3D5AC81296882
:1022C000090608D42968090605D42968090602D434
:1022D00029680906F3D53021A9812968090608D49F
:1022E0002968090605D42968090602D4296809065F
:1022F000F3D5A8812968090608D42968090605D4F8
:102300002968090602D429680906F3D568211291C3
:10231000A9812968090608D42968090605D429680D
:10232000090602D429680906F3D51699A9812968F6
:10233000090608D42968090605D42968090602D4C3
:1023400029680906F3D5AC812968090608D42968EB
:10235000090605D42968090602D429680906F3D5B7
:102360005421A9812968090608D42968090605D4D9
:102370002968090602D429680906F3D558210D9168
:10238000A9812968090608D42968090605D429689D
:10239000090602D429680906F3D51499A981296888
:1023A000090608D42968090605D42968090602D453
:1023B00029680906F3D55321A9812968090608D49B
:1023C0002968090605D42968090602D4296809067E
:1023D000F3D5AC812968090608D42968090605D413
:1023E0002968090602D429680906F3D50F99A9813D
:1023F0002968090608D42968090605D42968090648
:1024000002D429680906F3D5AE812968090608D4E3
:102410002968090605D42968090602D4296809062D
:10242000F3D5AC812968090608D42968090605D4C2
:102430002968090602D429680906F3D54E210C91B2
:10244000A9812968090608D42968090605D42968DC
:10245000090602D429680906F3D54121A981296812
:10246000090608D42968090605D42968090602D492
:1024700029680906F3D54321A9812968090608D4EA
:102480002968090605D42968090602D429680906BD
:10249000F3D54B21A9812968090608D429680906C2
:1024A00005D42968090602D429680906F3D546210E
:1024B000A9812968090608D42968090605D429686C
:1024C000090602D429680906F3D5AC8129680906F2
:1024D00008D42968090605D42968090602D42968A0
:1024E0000906F3D51399A9812968090608D4296832
:1024F000090605D42968090602D429680906F3D516
:102500006C210B91A9812968090608D4296809065C
:1025100005D42968090602D429680906F3D5159956
:10252000A9812968090608D42968090605D42968FB
:10253000090602D429680906F3D51099A9812968EA
:10254000090608D42968090605D42968090602D4B1
:1025500029680906F3D573211491A9812968090610
:1025600008D42968090605D42968090602D429680F
:102570000906F3D5AC812968090608D4296809063B
:1025800005D42968090602D429680906F3D51599E6
:10259000A9812968090608D42968090605D429688B
:1025A000090602D429680906F3D5AE81296809060F
:1025B00008D42968090605D42968090602D42968BF
:1025C0000906F3D51699A9812968090608D429684E
:1025D000090605D42968090602D429680906F3D535
:1025E000AC812968090608D42968090605D4296838
:1025F000090602D429680906F3D51499A981296826
:10260000090608D42968090605D42968090602D4F0
:1026100029680906F3D51699A9812968090608D4FD
:102620002968090605D42968090602D4296809061B
:10263000F3D5A8812968090608D42968090605D4B4
:102640002968090602D429680906F3D50199A981E8
:102650002968090608D42968090605D429680906E5
:1026600002D429680906F3D50099A9815969C906D8
:1026700016D5D04F3C7803E0E4B2AC814F1C4C78C7
:10268000002C0DD039462E683606F5D42E68360655
:10269000F2D42E683606EFD42E683606F3D5EBE773
:1026A00002995962C44C5721274606E0A98139791D
:1026B0003F1D26462C36B74236D02E68360608D443
:1026C0002E68360605D42E68360602D42E683606E5
:1026D000F3D5A98179782E68360608D42E68360697
:1026E00005D42E68360602D42E683606F3D5A981A5
:1026F000B9782E68360608D42E68360605D42E68BA
:10270000360602D42E683606F3D5A981F9782E68EC
:102710003606CBD42E683606C8D42E683606C5D405
:102720002E683606F3D5C1E75969490608D45969B8
:10273000490605D45969490602D459694906F3D5B1
:102740009E4C274606E0A881F878FF1C21462731D9
:102750008F4228D02968090608D42968090605D4BB
:102760002968090602D429680906F3D5A881787872
:102770002968090608D42968090605D429680906C4
:1027800002D429680906F3D5A881B8782968090612
:10279000D9D429680906D6D429680906D3D429686A
:1027A0000906F3D5CFE7186805990840186018683E
:1027B000049908431860186881490840186018682F
:1027C00003990843186018687E4908401860012A78
:1027D00004D10898800219680143196018687A4981
:1027E0000840186018680699084318607748572110
:1027F000044606E0A9812179241D06463436B442F8
:1028000036D02E68360608D42E68360605D42E68D3
:10281000360602D42E683606F3D5A98161782E6873
:10282000360608D42E68360605D42E68360602D43D
:102830002E683606F3D5A981A1782E68360608D40D
:102840002E68360605D42E68360602D42E68360663
:10285000F3D5A981E1782E683606CBD42E683606EA
:10286000C8D42E683606C5D42E683606F3D5C1E71F
:1028700058692868000608D42868000605D4286826
:10288000000602D428680006F3D51498A8810A9C93
:10289000099E2868000608D42868000605D4286820
:1028A000000602D428680006F3D57427AF81286893
:1028B000000608D42868000605D42868000602D45B
:1028C00028680006F3D51598A8812868000608D462
:1028D0002868000605D42868000602D42868000687
:1028E000F3D5AE812868000608D42868000605D410
:1028F0002868000602D428680006F3D5AF8128684E
:10290000000608D42868000605D42868000602D40A
:1029100028680006F3D5AC812868000608D428682A
:10292000000605D42868000602D428680006F3D5FE
:10293000AE812868000608D42868000605D42868F7
:10294000000602D428680006F3D51698A8812868E6
:10295000000608D42868000605D42868000602D4BA
:1029600028680006F3D51598A8812868000608D4C1
:102970002868000605D42868000602D428680006E6
:10298000F3D50798A8810020002A29D15969490662
:1029900008D45969490605D45969490602D45969C8
:1029A0004906F3D5089989031A680A431A6017B0D3
:1029B000F0BDC0460C000020553D00085A3D0008FF
:1029C000FFFF80FFFFFBFFFFFFFFFFFDAB3D0008A8
:1029D000AF810002196AC9B20818521E1106D5D07B
:1029E0005969490714D45969C90611D45969490765
:1029F0000ED45969C9060BD45969490708D45969D5
:102A0000C90605D45969490702D45969C906E7D5E9
:102A10005969C90600D5B7E12968090608D42968AB
:102A2000090605D42968090602D429680906F3D5E0
:102A30001699A9812968090608D42968090605D4C8
:102A40002968090602D429680906F3D50E99A981D7
:102A50002968090608D42968090605D429680906E1
:102A600002D429680906F3D5AF812968090608D47C
:102A70002968090605D42968090602D429680906C7
:102A8000F3D51299A9812968090608D4296809068D
:102A900005D42968090602D429680906F3D51699D0
:102AA000A9812968090608D42968090605D4296876
:102AB000090602D429680906F3D5AE8129680906FA
:102AC00008D42968090605D42968090602D42968AA
:102AD0000906F3D5AC812968090608D429680906D6
:102AE00005D42968090602D429680906F3D50F9987
:102AF000A9812968090608D42968090605D4296826
:102B0000090602D429680906F3D51399A981296811
:102B1000090608D42968090605D42968090602D4DB
:102B200029680906F3D5AC812968090608D4296803
:102B3000090605D42968090602D429680906F3D5CF
:102B4000AF812968090608D42968090605D42968CF
:102B5000090602D429680906F3D51299A9812968C2
:102B6000090608D42968090605D42968090602D48B
:102B700029680906F3D51699A9812968090608D498
:102B80002968090605D42968090602D429680906B6
:102B9000F3D5AC812968090608D42968090605D44B
:102BA0002968090602D429680906F3D51199A98173
:102BB0002968090608D42968090605D42968090680
:102BC00002D429680906F3D50D99A9812968090657
:102BD00008D42968090605D42968090602D4296899
:102BE0000906F3D50C99A9812968090608D4296832
:102BF000090605D42968090602D429680906F3D50F
:102C00004521A9812968090608D42968090605D43F
:102C10002968090602D429680906F3D5AC81296818
:102C2000090608D42968090605D42968090602D4CA
:102C300029680906F3D51399A9812968090608D4DA
:102C40002968090605D42968090602D429680906F5
:102C5000F3D50B99A9812968090608D429680906C2
:102C600005D42968090602D429680906F3D51599FF
:102C7000A9812968090608D42968090605D42968A4
:102C8000090602D429680906F3D51099A981296893
:102C9000090608D42968090605D42968090602D45A
:102CA00029680906F3D51499A9812968090608D469
:102CB0002968090605D42968090602D42968090685
:102CC000F3D5AC812968090608D42968090605D41A
:102CD0002968090602D429680906F3D51599A9813E
:102CE0002968090608D42968090605D4296809064F
:102CF00002D429680906F3D5AE812968090608D4EB
:102D00002968090605D42968090602D42968090634
:102D1000F3D51699A9812968090608D429680906F6
:102D200005D42968090602D429680906F3D5AC81BF
:102D30002968090608D42968090605D429680906FE
:102D400002D429680906F3D51499A98129680906CE
:102D500008D42968090605D42968090602D4296817
:102D60000906F3D51699A9812968090600D52FE629
:102D70002968090600D52BE62968090600D527E64B
:102D800029680906F0D523E60B4C217803E0C9B287
:102D9000A981541C5178002900D1F7E522462C68FE
:102DA0002406F4D42C682406F1D42C682406EED42E
:102DB0002C682406F3D5EAE70C00002088B0012235
:102DC000024030326946CA778207D20F30328A77A2
:102DD0004207D20F30324A770207D20F30320A77D9
:102DE000C206D20F3032CA768206D20F30328A76CD
:102DF0004206D20F30324A76C2B2D20930320A7657
:102E0000C205D20F3032CA758205D20F30328A75B0
:102E10004205D20F30324A750205D20F30320A75A0
:102E2000C204D20F3032CA748204D20F30328A7494
:102E30004204D20F30324A740204D20F30320A7484
:102E4000C203D20F3032CA738203D20F30328A7378
:102E50004203D20F30324A73C202D20F3032CA72EA
:102E60000203D20F30320A738202D20F30328A72DA
:102E70004202D20F30324A720202D20F30320A724C
:102E8000C201D20F3032CA718201D20F30328A7140
:102E90004201D20F30324A710201D20F30320A7130
:102EA000C200D20F3032CA708200D20F30328A7024
:102EB0004200D20F30324A70C00F3030B34A04E0C3
:102EC00090814878491C00280CD013681B06F7D461
:102ED00013681B06F4D413681B06F1D413681B0691
:102EE000F3D5EDE708B07047F0B58FB00492A44A6F
:102EF000541CA44D2B46143B1E6826401E60400007
:102F00001C6804431C607F2000041C6884431C6010
:102F1000012630041C6804431C60186810401860C7
:102F200070061A6882431A60059670031A68024395
:102F300003931A60944A57269448144606E0868103
:102F4000A679A41D17463637BC4252D007683F0603
:102F500008D407683F0605D407683F0602D407680F
:102F60003F06F3D58681667807683F0608D4076870
:102F70003F0605D407683F0602D407683F06F3D52D
:102F80008681A67807683F0608D407683F0605D4FF
:102F900007683F0602D407683F06F3D58681E678C6
:102FA00007683F0608D407683F0605D407683F0650
:102FB00002D407683F06F3D58681267907683F0665
:102FC00008D407683F0605D407683F0602D407689F
:102FD0003F06F3D58681667907683F06AFD4076858
:102FE0003F06ACD407683F06A9D407683F06F3D56F
:102FF000A5E72A68920714D42A68D20611D42A6851
:1030000092070ED42A68D2060BD42A68920708D4F5
:103010002A68D20605D42A68920702D42A68D20602
:10302000E7D55B4A6526144602E086812679241D91
:1030300007683F0608D407683F0605D407683F06BF
:1030400002D407683F06F3D58681667807683F0695
:1030500008D407683F0605D407683F0602D407680E
:103060003F06F3D58681A67807683F0608D407682F
:103070003F0605D407683F0602D407683F06F3D52C
:10308000868116462B36E71CB7420DD0E6780768D6
:103090003F06CAD407683F06C7D407683F06C4D4B2
:1030A00007683F06F3D5C0E72A68D20616D5394E21
:1030B000327803E0D2B28281661C6278002A0DD099
:1030C000344606683606F5D406683606F2D4066835
:1030D0003606EFD406683606F3D5EBE729612E49AC
:1030E00057240A4606E084815479521D0E4628363C
:1030F000B24253D00668360608D40668360605D4B0
:103100000668360602D406683606F3D584815478FC
:103110000668360608D40668360605D406683606FC
:1031200002D406683606F3D584819478066836069C
:1031300008D40668360605D40668360602D4066842
:103140003606F3D58481D4780668360608D4066836
:10315000360605D40668360602D406683606F3D568
:103160008481147906683606BDD406683606BAD45A
:1031700006683606B7D406683606F3D5B3E7C04608
:10318000FFFBFFFF18580040BE3C00081C480040F1
:10319000C93C00080C000020823D0008296889070E
:1031A00008D42968890705D42968890702D42968C1
:1031B0008907F3D50168090608D40168090605D412
:1031C0000168090602D401680906F3D549268681FB
:1031D0000268120608D40268120605D402681206B4
:1031E00002D402681206F3D532210A918181026865
:1031F000120608D40268120605D40268120602D428
:1032000002681206F3D543210991818102681206F2
:1032100008D40268120605D40268120602D40268B5
:103220001206F3D55F2383810268120608D4026870
:10323000120605D40268120602D402681206F3D5FB
:1032400086810268120608D40268120605D4026854
:10325000120602D402681206F3D553248481026850
:10326000120608D40268120605D40268120602D4B7
:1032700002681206F3D552210E918181026812066E
:1032800008D40268120605D40268120602D4026845
:103290001206F3D583810268120608D4026812066A
:1032A00005D40268120602D402681206F3D5542728
:1032B00087810268120608D40268120605D40268E3
:1032C000120602D402681206F3D5582101918181B9
:1032D0000268120608D40268120605D402681206B3
:1032E00002D402681206F3D586810268120608D459
:1032F0000268120605D40268120602D40268120699
:10330000F3D584810268120608D40268120605D437
:103310000268120602D402681206F3D520218181C8
:103320000268120608D40268120605D40268120662
:1033300002D402681206F3D56922069282810268DD
:10334000120608D40268120605D40268120602D4D6
:1033500002681206F3D573220B928281026812066C
:1033600008D40268120605D40268120602D4026864
:103370001206F3D581810268120608D4026812068B
:1033800005D40268120602D402681206F3D50B9A1D
:1033900082810268120608D40268120605D4026807
:1033A000120602D402681206F3D5029365220C922B
:1033B00082810268120608D40268120605D40268E7
:1033C000120602D402681206F3D533460791089418
:1033D00074210D9181810268120608D402681206D8
:1033E00005D40268120602D402681206F3D52E2113
:1033F0000091818104992961E64E5724324606E006
:1034000084815479521D314628318A4244D0016862
:10341000090608D40168090605D40168090602D422
:1034200001680906F3D5848154780168090608D437
:103430000168090605D40168090602D40168090675
:10344000F3D5848194780168090608D401680906D7
:1034500005D40168090602D401680906F3D5848100
:10346000D4780168090608D40168090605D4016802
:10347000090602D401680906F3D58481147901682C
:103480000906BDD401680906BAD401680906B7D493
:1034900001680906F3D5B3E72968890708D42968C4
:1034A000890705D42968890702D429688907F3D5D3
:1034B000089A079C1E460168090608D40168090697
:1034C00005D40168090602D401680906F3D586818E
:1034D000029B0168090608D40168090605D4016841
:1034E000090602D401680906F3D50A9981810168A9
:1034F000090608D40168090605D40168090602D442
:1035000001680906F3D5099981810168090608D483
:103510000168090605D40168090602D40168090694
:10352000F3D583810168090608D40168090605D42A
:103530000168090602D401680906F3D5868101688D
:10354000090608D40168090605D40168090602D4F1
:1035500001680906F3D582810168090608D401686B
:10356000090605D40168090602D401680906F3D5E5
:103570000E9981810168090608D40168090605D4FD
:103580000168090602D401680906F3D58381016840
:10359000090608D40168090605D40168090602D4A1
:1035A00001680906F3D587810168090608D4016816
:1035B000090605D40168090602D401680906F3D595
:1035C000019981810168090608D40168090605D4BA
:1035D0000168090602D401680906F3D586810168ED
:1035E000090608D40168090605D40168090602D451
:1035F00001680906F3D582810168090608D40168CB
:10360000090605D40168090602D401680906F3D544
:1036100084810168090608D40168090605D4016897
:10362000090602D401680906F3D50699818101686B
:10363000090608D40168090605D40168090602D400
:1036400001680906F3D50B9981810168090608D440
:103650000168090605D40168090602D40168090653
:10366000F3D584810168090608D40168090605D4E8
:103670000168090602D401680906F3D50B99818116
:103680000168090608D40168090605D4016809061D
:1036900002D401680906F3D50C99818101680906F5
:1036A00008D40168090605D40168090602D4016836
:1036B0000906F3D50D9981810168090608D40168CE
:1036C000090605D40168090602D401680906F3D584
:1036D00000998181EE4957240A4606E08481547995
:1036E000521D0E463236B24244D00668360608D421
:1036F0000668360605D40668360602D4066836061D
:10370000F3D5848154780668360608D406683606F0
:1037100005D40668360602D406683606F3D58481D9
:1037200094780668360608D40668360605D4066816
:10373000360602D406683606F3D58481D478066846
:10374000360608D40668360605D40668360602D45E
:1037500006683606F3D58481147906683606BDD42A
:1037600006683606BAD406683606B7D40668360642
:10377000F3D5B3E72968490608D42968490605D472
:103780002968490602D429684906F3D5C1490C467F
:1037900009E0C046823D00088281E779E41D0A46BF
:1037A0002332944260D00268120608D402681206DE
:1037B00005D40268120602D402681206F3D5878186
:1037C000627805682D0608D405682D0605D40568BD
:1037D0002D0602D405682D06F3D58281A2780568EE
:1037E0002D0608D405682D0605D405682D0602D4DB
:1037F00005682D06F3D58281E27805682D0608D488
:1038000005682D0605D405682D0602D405682D0629
:10381000F3D58281227905682D0608D405682D0626
:1038200005D405682D0602D405682D06F3D58281DE
:10383000627905682D0608D405682D0605D405684B
:103840002D0602D405682D06F3D58281A27905687C
:103850002D06A1D405682D069ED405682D069BD49F
:1038600005682D06F3D597E705998903039B1A6828
:103870000A431A60079C0168090608D40168090612
:1038800005D40168090602D401680906F3D5572159
:103890008181089A0168090608D40168090605D4DF
:1038A0000168090602D401680906F3D572218181F5
:1038B0000168090608D40168090605D401680906EB
:1038C00002D401680906F3D50699818101680906C9
:1038D00008D40168090605D40168090602D4016804
:1038E0000906F3D50D9981810168090608D401689C
:1038F000090605D40168090602D401680906F3D552
:103900000C9981810168090608D40168090605D46B
:103910000168090602D401680906F3D584810168AB
:10392000090608D40168090605D40168090602D40D
:1039300001680906F3D50E9981810168090608D44A
:103940000168090605D40168090602D40168090660
:10395000F3D50C9981810168090608D4016809062C
:1039600005D40168090602D401680906F3D5672168
:1039700081810168090608D40168090605D4016837
:10398000090602D401680906F3D584810168090695
:1039900008D40168090605D40168090602D4016843
:1039A0000906F3D582810168090608D40168090671
:1039B00005D40168090602D401680906F3D50D99FA
:1039C00081810168090608D40168090605D40168E7
:1039D000090602D401680906F3D56F2181810168C7
:1039E000090608D40168090605D40168090602D44D
:1039F00001680906F3D5702181810168090608D4A0
:103A00000168090605D40168090602D4016809069F
:103A1000F3D584810168090608D40168090605D434
:103A20000168090602D401680906F3D50999818164
:103A30000168090608D40168090605D40168090669
:103A400002D401680906F3D50E998181016809063F
:103A500008D40168090605D40168090602D4016882
:103A60000906F3D50A9981810168090608D401681D
:103A7000090605D40168090602D401680906F3D5D0
:103A80000A2181811868FFF799F90FB0F0BDC0468F
:103A9000223D00085E3D000843088B421AD30022F5
:103AA00003098B4279D3030A8B425ED3030B8B420B
:103AB00042D3030C8B4227D30902FF2212BA030C14
:103AC0008B4202D31212090203D0030B8B4233D371
:103AD0001AE0D3E0411A8041401C704703460B4373
:103AE00071D443088B42F5D3002203098B4254D38F
:103AF000030A8B4239D3030B8B421DD3030C8B4239
:103B000002D394466EE0090AC30B8B4201D3CB0368
:103B1000C01A5241830B8B4201D38B03C01A52410E
:103B2000430B8B4201D34B03C01A5241030B8B4210
:103B300001D30B03C01A5241C30A8B4201D3CB02FB
:103B4000C01A5241830A8B4201D38B02C01A5241E0
:103B5000430A8B4201D34B02C01A5241030A8B42E3
:103B600001D30B02C01A5241CDD2C3098B4201D3FB
:103B7000CB01C01A524183098B4201D38B01C01A79
:103B8000524143098B4201D34B01C01A52410309F0
:103B90008B4201D30B01C01A5241C3088B4201D39F
:103BA000CB00C01A524183088B4201D38B00C01A4C
:103BB000524143088B4201D34B00C01A5241411A73
:103BC000524110007047CA0F00D04942031000D381
:103BD0004042534000229C4603098B422DD3030AE6
:103BE0008B4212D38901FC2212BA030A8B420CD3F6
:103BF000890192118B4208D3890192118B4204D31F
:103C0000890137D0921100E08909C3098B4201D3A1
:103C1000CB01C01A524183098B4201D38B01C01AD8
:103C2000524143098B4201D34B01C01A524103094F
:103C30008B4201D30B01C01A5241C3088B4201D3FE
:103C4000CB00C01A524183088B4201D38B00C01AAB
:103C50005241D9D243088B4201D34B00C01A524182
:103C6000411A00D201465241104663465B1000D310
:103C70004042704763465B1000D3404201B50021CB
:103C8000004201D0C9430846C046C04602BD0000FC
:103C900000000000000001020304060708090203F7
:103CA0000405060708090A0B0C0D0E0F101001027F
:103CB000030405060708090A0B0C0D0E0F105761C7
:103CC000697420756E74696C20656974686572200A
:103CD0006F66207468652054584953206F72204ED7
:103CE00041434B4620666C616773206172652073A7
:103CF00065742E0A0077616974206569746865725D
:103D0000207468652054584953206F72204E4143F7
:103D10004B4620666C616773206172652073657421
:103D20002E005761697420756E74696C2074686523
:103D300020544320285472616E7366657220436F6D
:103D40006D706C6574652920666C616720697320ED
:103D50007365742E0057616974207468652054433C
:103D600020285472616E7366657220436F6D706CAB
:103D70006574652920666C616720697320736574BA
:103D80002E005761697420756E74696C20746865C3
:103D9000204932435F4953525F5458495320666C5F
:103DA0006167206973207365742E00576169742000
:103DB000756E74696C20656974686572206F662021
:103DC0007468652052584E45206F72204E41434B17
:103DD0004620666C616773206172652073657400AC
:103DE000003E000800000020200000001C01000828
:103DF000203E000820000020680600003C0100086A
:103E0000010000000400000000127A00536C61768B
:103E100065206E6F20726573706F6E736521000090
:04000005080000C12E
:00000001FF
