:020000040800F2
:100000008806002081010008C3090008C109000812
:1000100000000000000000000000000000000000E0
:10002000000000000000000000000000C7090008F8
:100030000000000000000000C5090008C909000810
:100040009301000893010008930100089301000840
:100050009301000893010008930100089301000830
:100060009301000893010008930100089301000820
:100070009301000893010008930100089301000810
:100080009301000893010008930100089301000800
:1000900093010008930100089301000893010008F0
:1000A00093010008930100089301000893010008E0
:1000B00093010008930100089301000893010008D0
:1000C00000F002F800F04CF812A030C808382418EC
:1000D0002D18AC4201D100F043F80FCCA246AB463C
:1000E0000CA730CF2D1B083F3F197C427F1E544484
:1000F0002D090426F441641EAC4201D300F030F80F
:100100000126334200D0FB1A3343984754465D46DC
:10011000DFE70000B43A0000D43A0000103A02D3FE
:1001200078C878C1FAD8520701D330C830C101D598
:1001300004680C6070470000704700000023002432
:1001400000250026103A01D378C1FBD8520700D30E
:1001500030C100D50B6070471FB51FBD10B510BD75
:1001600000F04DF81146FFF7F7FF01F013FA00F029
:1001700065F803B4FFF7F2FF03BC00F06BF8000072
:100180000748804707480047FEE7FEE7FEE7FEE72F
:10019000FEE7FEE704480549054A064B70470000A4
:1001A000D1090008C100000888000020880600204E
:1001B000880200208802002001E004C0091F0429F1
:1001C000FBD28B0701D50280801CC90700D00270CA
:1001D000704700290BD0C30702D00270401C491E93
:1001E000022904D3830702D50280801C891EE3E71D
:1001F0000022EEE70022DFE7704770477047754640
:1002000000F024F8AE46050069465346C008C00019
:10021000854618B020B5FFF7BDFF60BCB646002686
:100220000027C0C5C0C5C0C5C0C5C0C5C0C5C0C504
:10023000C0C5403D490849008D46704710B5044689
:10024000C046C0462046FFF794FF10BD00487047E7
:100250002000002001491820ABBEFEE72600020066
:1002600070470000B0B5044600F00CF80546601C6D
:1002700002D021480078041900F004F8401BA04285
:10028000FAD3B0BD054800687047C0461A480078E8
:1002900002490A68101808607047C04680000020B4
:1002A00080B58548016810220A430260032000F0EF
:1002B00005F800F023F8002080BDC04670B5044664
:1002C0007D20C0000C4E317803F0B6FA0146844818
:1002D000006803F0B1FA00F059FB0125032C08D89F
:1002E000002806D10025E84321462A4600F01CF8E4
:1002F0007460284670BDC0460000002082B00948E6
:1003000001680122114301600168114001910199C6
:10031000110742680A434260406808400090009814
:1003200002B0704718100240002805D4032203468B
:1003300093430A4A9A1803E00C220240064BD21853
:100340008007C00E8901C9B28140FF238340106835
:10035000984308431060704714ED00E000E400E0AB
:10036000F0B581B0002846D00446534A13680120F6
:1003700003408B4208D213680126B3430B4313603A
:10038000126832408A4237D1009121688A074B4B6C
:1003900010D54A0706D5072212021B681343474AA5
:1003A0001360464B1A68F0239A43A3681343434AE9
:1003B0001360424BC90722D13F49086801263040EB
:1003C000009A904205D90868B04308600868C007E1
:1003D00012D12078400706D5072000021968814312
:1003E000E068084318601A681007810F3548022931
:1003F00012D2044650E00126304601B0F0BD6168DB
:1004000003290DD01A1F02290FD0012912D1126819
:1004100092030646F0D511E0032926D12A4C3BE091
:100420001A6B92030646E7D508E012689201064669
:10043000E2D503E0126892070646DDD51868032668
:10044000B04308431860FFF71DFF07461C4D1B4BC8
:1004500018680C210140606880008142ACD0FFF731
:1004600011FFC01BA842F2D9C6E70321CB031349F1
:10047000896A0F240C401549095D94021A40240F23
:10048000134D2C5D9A4202D033049A4200E00E488C
:1004900003F0D2F94443094B18680006000F0D49D8
:1004A000085CC4400E4804600320FFF707FF0026E5
:1004B000304601B0F0BDC0460020024004100240AA
:1004C0008813000000127A00006CDC024E3A00082B
:1004D0003E3A00082E3A0008014800687047C046BE
:1004E00008000020F0B587B004460120002C00D1A0
:1004F00045E204902078C007F94E05940CD071684D
:100500000C200140042900D090E03068800303D51E
:100510006068002800D120E12078800721D570682C
:100520000007800F0ED070680C210140082900D010
:100530009DE00320C003716801400120C003814297
:1005400000D094E030688007059C03D5E06801285E
:1005500000D002E13068F82188432169C9000143D5
:100560003160059C2078000724D42078400737D4D8
:100570002078C00600D4D3E005984069411D00D121
:10058000C2E0012800D030E1706B042101437163A7
:10059000706B012101437163FFF774FE0546706BB8
:1005A000800700D5B4E0FFF76DFE411B0320022950
:1005B000F5D9E4E1706AE169002900D181E0012107
:1005C00008437062FFF75EFE0546706A8007CCD470
:1005D000FFF758FE401B0228F7D9032007B0F0BDF3
:1005E000012003900107F0690840029006D1F069EC
:1005F0000843F061F0690840069006980191E14FC8
:100600003868C0054AD4039804023868204338602B
:10061000FFF738FE0546386820423FD1FFF732FE2B
:10062000401B6428F7D9032007B0F0BD7168014072
:10063000082908D10320C00371680140012000048B
:10064000814200D161E7616801204704002900D19F
:1006500017E1052900D12BE1012900D12CE101048A
:1006600032688A43326081043068884327E1306809
:10067000059CE168002936D0012108433060FFF76E
:1006800001FE05463068800700D563E7FFF7FAFDF5
:10069000401B0228F6D9032007B0F0BD05988068FA
:1006A000002800D1B6E0052800D1C9E0012800D11A
:1006B000CAE0306A039988433062306A0421884373
:1006C000C5E0012188437062FFF7DCFD0546706AD2
:1006D000800700D449E7FFF7D5FD401B0228F6D973
:1006E000032007B0F0BD012188433060FFF7CAFD49
:1006F00005463068800700D433E7FFF7C3FD411B90
:1007000003200229F5D93AE1706B04218843706314
:10071000706BF821884305998969C90001437163A9
:100720000598007880060BD571680C2001400C29D3
:1007300039D1706B800303D50598006A01280CD16C
:100740000598446A002C00D1E1E070680C2101405A
:10075000082905D1012C00D0C4E0049807B0F0BDF1
:100760000120020631680492914331604706FFF789
:1007700089FD0546022C0BD1049C3068384200D11B
:10078000DEE0FFF77FFD411B03200229F5D9F6E0EB
:100790003068384200D1BAE0FFF774FD411B0320F6
:1007A0000229F5D9EBE071680140082905D1032041
:1007B000C003716801408142BBD0706B0599096A22
:1007C000002900D1A9E001210A04104370634C0400
:1007D000FFF758FD0546706B2042B1D1FFF752FD7F
:1007E000411B03200229F6D9C9E0706B04210143A3
:1007F0007163706B012188437063FFF743FD054609
:10080000706B80078CD5FFF73DFD411B032002294B
:10081000F6D9B4E0306A039988433062306A042123
:1008200088433062584CFFF72DFD0546306A80073B
:100830001DD5FFF727FD411B0320A142F6D99EE0FD
:10084000306A042101433162306A039908433062FF
:100850004D4CFFF717FD0546306A800707D4FFF7B8
:1008600011FD401BA042F7D9032007B0F0BD02984C
:100870000028059C00D07BE6F06901998843F0616F
:1008800076E6010432688A4332608004316881432D
:100890003160FFF7F7FC0546059C3068384200D10F
:1008A0003AE6FFF7EFFC411B03206429F5D966E027
:1008B000810432680A4332600104306808433060C2
:1008C000FFF7E0FC05463068384200D024E6FFF729
:1008D000D9FC401B6428F6D9032007B0F0BDC04600
:1008E000001002400320C20370680240F16A059CB8
:1008F000A36A9A42049D0DD10F221140236B9942A5
:1009000008D191040840E16A8842284637D1002086
:1009100007B0F0BD284607B0F0BD01210A0490439E
:1009200070634C04FFF7AEFC0546706B204200D1AB
:1009300006E7FFF7A7FC411B03200229F5D91EE0BB
:10094000F06A0F218843059A116B0143F1627B2005
:10095000C00371688143D06A0843916A01437160A2
:10096000306820433060FFF78DFC04463068384221
:10097000CDD1FFF787FC011B03200229F6D907B070
:10098000F0BDC0460070004088130000401E010EFC
:1009900001D0012070470749074A506007480368A3
:1009A0000B4003218907591801600020906007213E
:1009B00011607047FFFFFF0010E000E020ED00E055
:1009C000FEE7FEE77047704780B5FFF75FFC80BD2C
:1009D00070470000B0B5692520240B222846214627
:1009E00002F032F901222846214600F0FFFDC0B294
:1009F00085490B2800D0D9E00868000608D40868AB
:100A0000000605D40868000602D408680006F3D57D
:100A1000772088810868000608D40868000605D495
:100A20000868000602D408680006F3D572208881A1
:100A30000868000608D40868000605D4086800069F
:100A400002D408680006F3D5742088810A6812066B
:100A500008D40A68120605D40A68120602D40A6885
:100A60001206F3D58D810A68120608D40A681206A8
:100A700005D40A68120602D40A681206F3D5652264
:100A80008A810A68120608D40A68120605D40A6820
:100A9000120602D40A681206F3D58C810A6812067F
:100AA00008D40A68120605D40A68120602D40A6835
:100AB0001206F3D564228A810A68120608D40A68ED
:100AC000120605D40A68120602D40A681206F3D583
:100AD00061228A810B681B0608D40B681B0605D4AB
:100AE0000B681B0602D40B681B06F3D588810B68C4
:100AF0001B0608D40B681B0605D40B681B0602D422
:100B00000B681B06F3D58A810B681B0608D40B689B
:100B10001B0605D40B681B0602D40B681B06F3D515
:100B20008C810B681B0608D40B681B0605D40B6868
:100B30001B0602D40B681B06F3D56D238B810B6853
:100B40001B0608D40B681B0605D40B681B0602D4D1
:100B50000B681B06F3D58A810A68120608D40A6856
:100B6000120605D40A68120602D40A681206F3D5E2
:100B700088810868000608D40868000605D408685B
:100B8000000602D408680006F3D56320888108684F
:100B9000000608D40868000605D40868000602D4D8
:100BA00008680006F3D568208881B0BD174A77240D
:100BB000134606E08C819C789B1C15462235AB427F
:100BC0001AD00D682D0608D40D682D0605D40D68C1
:100BD0002D0602D40D682D06F3D58C815C780D6846
:100BE0002D06E7D40D682D06E4D40D682D06E1D45A
:100BF0000D682D06F3D5DDE701F090FF6920202177
:100C00000B2202F021F8B0BD1C480040953A0008C4
:100C1000F0B5012082043A490B6813430B60C2040B
:100C20000B6813430B60C207364B1C6894431C606F
:100C300082071C6894431C60C2051C6814431C6036
:100C400082051C6894431C60C4061D6825431D6012
:100C500084061D68A5431D6044071D68A5431D60EB
:100C600004071D6825431D60274E35680227BD43D4
:100C700035603568054335600F252F03596AB94340
:100C8000596201035F6A0F435F6229055F6A8F4300
:100C90005F62052109055F6A0F435F62C1025F68F9
:100CA0000F435F6041035F680F435F6081035F68CC
:100CB0008F435F607768874377605F690F435F6149
:100CC000716901437161F64B9968114399600F494D
:100CD0000B6823430B600B6813241C430C602B022E
:100CE0000C681C430C6043040C681C430C600B68CC
:100CF00013430B6010390A6802430A60F0BDC04616
:100D00001410024000040048000800481058004039
:100D1000F0B583B00125E904E14802680A430260A6
:100D20006A02E0490B6813430B602A020B68934385
:100D30000B60EA020B6813430B60AA020B68934333
:100D40000B602A040B6A13430B622A050B6A1343D8
:100D50000B62A90482680A438260FFF7BDFBE121B0
:100D6000490202F069FDD04C214610390860204646
:100D70001C38016808220A430260016804220A4301
:100D80000260016829430160FFF742FF2068000606
:100D900008D42068000605D42068000602D4206824
:100DA0000006F3D56C20A0812168090608D42168CB
:100DB000090605D42168090602D421680906F3D57D
:100DC0006126A6812168090608D42168090605D490
:100DD0002168090602D421680906F3D56221A181A0
:100DE0002168090608D42168090605D42168090686
:100DF00002D421680906F3D53521A18121680906AD
:100E000008D42168090605D42168090602D421689E
:100E10000906F3D55F21A1812168090608D421685C
:100E2000090605D42168090602D421680906F3D50C
:100E30003121A1812168090608D42168090605D459
:100E40002168090602D421680906F3D53A21A18157
:100E50002168090608D42168090605D42168090615
:100E600002D421680906F3D52025A5812168090649
:100E700008D42168090605D42168090602D421682E
:100E80000906F3D568210291A1812168090608D4D9
:100E90002168090605D42168090602D421680906DB
:100EA000F3D56527A7812168090608D421680906BA
:100EB00005D42168090602D421680906F3D5A0816A
:100EC0002168090608D42168090605D421680906A5
:100ED00002D421680906F3D5A0812068000608D451
:100EE0002068000605D42068000602D420680006A9
:100EF000F3D56F200190A08169200F21012200F01D
:100F000075FBD32800D0D1E02068000608D4206803
:100F1000000605D42068000602D420680006F3D538
:100F20007220A0812068000608D42068000605D43D
:100F30002068000602D420680006F3D5A781206847
:100F4000000608D42068000605D42068000602D4F4
:100F500020680006F3D5A6812068000608D4206822
:100F6000000605D42068000602D420680006F3D5E8
:100F70006420A0812168090608D42168090605D4E7
:100F80002168090602D421680906F3D5A5812168E4
:100F9000090608D42168090605D42168090602D487
:100FA00021680906F3D5A0812068000608D42068CE
:100FB000000605D42068000602D420680006F3D598
:100FC000A6812068000608D42068000605D42068A1
:100FD000000602D420680006F3D57420A0812168A1
:100FE000090608D42168090605D42168090602D437
:100FF00021680906F3D5A6812168090608D421686D
:10100000090605D42168090602D421680906F3D52A
:10101000A5812168090608D42168090605D421683C
:10102000090602D421680906F3D56D21A181216842
:10103000090608D42168090605D42168090602D4E6
:1010400021680906F3D5A6812168090608D421681C
:10105000090605D42168090602D421680906F3D5DA
:10106000A0812068000608D42068000605D4206806
:10107000000602D420680006F3D56320A081206812
:10108000000600D50FE12068000600D50BE12068BE
:10109000000600D507E120680006F0D503E1C04650
:1010A00014100240000800481C4800402068000658
:1010B00008D42068000605D42068000602D4206801
:1010C0000006F3D57220A0812068000608D42068AD
:1010D000000605D42068000602D420680006F3D577
:1010E000A7812068000608D42068000605D420687F
:1010F000000602D420680006F3D5A6812068000609
:1011000008D42068000605D42068000602D42068B0
:101110000006F3D56420A0812168090608D421685F
:10112000090605D42168090602D421680906F3D509
:10113000A5812168090608D42168090605D421681B
:10114000090602D421680906F3D5A08120680006AB
:1011500008D42068000605D42068000602D4206860
:101160000006F3D5A6812068000608D42068000692
:1011700005D42068000602D420680006F3D5742048
:10118000A0812168090608D42168090605D42168D0
:10119000090602D421680906F3D5A681216809064B
:1011A00008D42168090605D42168090602D42168FB
:1011B0000906F3D5A5812168090608D42168090626
:1011C00005D42168090602D421680906F3D56E21E9
:1011D000A1812168090608D42168090605D421687F
:1011E000090602D421680906F3D50199A181216875
:1011F000090608D42168090605D42168090602D425
:1012000021680906F3D5A0812168090608D4216860
:10121000090605D42168090602D421680906F3D518
:10122000A5812168090608D42168090605D421682A
:10123000090602D421680906F3D56D21A181216830
:10124000090608D42168090605D42168090602D4D4
:1012500021680906F3D5A6812168090608D421680A
:10126000090605D42168090602D421680906F3D5C8
:10127000A0812068000608D42068000605D42068F4
:10128000000602D420680006F3D56320A081206800
:10129000000608D42068000605D42068000602D4A1
:1012A00020680006F3D50298A08103B0F0BD0000CD
:1012B00084B00120C104B24A13680B4313600303D6
:1012C000B04C2246143A15681D4315604303156857
:1012D0009D431560830315681D431560C30315689E
:1012E0009D431560030415681D431560430415688C
:1012F0009D431560830415681D43156013688B4377
:1013000013600322130321460C390D689D430D60C1
:1013100093030D689D430D6013040D689D430D609C
:1013200092040B6893430B600F210A042346083B89
:101330001D6895431D6009031A688A431A60216875
:1013400040220392114321602168802202921143BE
:10135000216002022168019211432160410220684C
:10136000009108432060FFF735FBC720C543864E38
:10137000874F0BE02068039908433946803120608D
:101380002068084020606420FEF76CFF306800068B
:10139000FCD56220B0813068000608D430680006B1
:1013A00005D43068000602D430680006F3D5692100
:1013B000B1813068000608D43068000605D4306872
:1013C000000602D430680006F3D56720B08130688B
:1013D000000608D43068000605D43068000602D440
:1013E00030680006F3D52020B0813268120608D498
:1013F0003268120605D43268120602D43268120628
:10140000F3D57722B2813268120608D43268120608
:1014100005D43268120602D432681206F3D5682267
:10142000B2813268120608D43268120605D43268D6
:10143000120602D432681206F3D5B181316809066A
:1014400008D43168090605D43168090602D4316828
:101450000906F3D56C21B1813268120608D43268CE
:10146000120605D43268120602D432681206F3D589
:101470006522B2813268120608D43268120605D499
:101480003268120602D432681206F3D5B081306891
:10149000000608D43068000605D43068000602D47F
:1014A00030680006F3D5B1813068000608D4306892
:1014B000000605D43068000602D430680006F3D573
:1014C0006F20B0813168090608D43168090605D457
:1014D0003168090602D431680906F3D5B081306855
:1014E000000608D43068000605D43068000602D42F
:1014F00030680006F3D57020B0813068000608D44B
:101500003068000605D43068000602D43068000652
:10151000F3D50A20B0816920A821022200F066F8E4
:101520000102000A084301B2C92904DB20680199BD
:101530000843164908E02068A94202DA00990843E6
:1015400001E01249084039462060206808402060C8
:101550006920AA21022200F049F80102000A08438A
:1015600001B2C92900DB05E72068A94202DA029925
:10157000084301E0029988433946C031FFE6C0467E
:1015800014100240140800481C480040FFFDFFFFF3
:10159000FFFEFFFF92B0FEF783FE05AD281D302150
:1015A000FEF728FE00240E941020099001200890D8
:1015B000022005902846FEF795FF002803D0EFF3A0
:1015C000108072B6FEE70494039402940720019001
:1015D00001A82146FEF7C4FE002803D0EFF31080D7
:1015E00072B6FEE7FFF794FBFFF762FEF0B595B029
:1015F0000191D74D6C1CD74B19680C942140196090
:10160000410018680291084318601868D2490840E0
:1016100018600124200419680143196018682840E3
:1016200018601868CD49084018600694610318686E
:10163000039108431860CA4D2868000608D428683A
:10164000000605D42868000602D428680006F3D5F1
:1016500049201390A8812868000608D4286800064D
:1016600005D42868000602D428680006F3D56E2148
:10167000A9812868000608D42868000605D42868CF
:10168000000602D428680006F3D52024AC8128681F
:10169000000608D42868000605D42868000602D48D
:1016A00028680006F3D572201190A88128680006EA
:1016B00008D42868000605D42868000602D42868E3
:1016C0000006F3D56526AE812868000608D4286890
:1016D000000605D42868000602D428680006F3D561
:1016E00061201490A8812868000608D428680006A4
:1016F00005D42868000602D428680006F3D56420C3
:101700000490A8812868000608D42868000605D43B
:101710002868000602D428680006F3D552200F90EE
:10172000A8812868000608D42868000605D428681F
:10173000000602D428680006F3D5AE8128680006AA
:1017400008D42868000605D42868000602D4286852
:101750000006F3D567200E90A8812868000608D4FB
:101760002868000605D42868000602D42868000608
:10177000F3D5AC812868000608D42868000605D493
:101780002868000602D428680006F3D566200D906C
:10179000A8812868000608D42868000605D42868AF
:1017A000000602D428680006F3D57520A8812868B1
:1017B000000608D42868000605D42868000602D46C
:1017C00028680006F3D5A9812868000608D428688F
:1017D000000605D42868000602D428680006F3D560
:1017E00012946320A8812868000608D4286800069F
:1017F00005D42868000602D428680006F3D57420B2
:10180000A8812C68240608D42C68240605D42C68EA
:10181000240602D42C682406F3D56924AC812C68F4
:10182000240608D42C68240605D42C68240602D487
:101830002C682406F3D56F240894AC812C68240608
:1018400008D42C68240605D42C68240602D42C68FD
:101850002406F3D5A9812968090608D42968090650
:1018600005D42968090602D429680906F3D510961B
:101870002E210091A9812968090608D42968090642
:1018800005D42968090602D429680906F3D50A2176
:101890000591A981334977260C4606E0AE81267969
:1018A000241D0F462C37BC4236D02F683F0608D483
:1018B0002F683F0605D42F683F0602D42F683F06E5
:1018C000F3D5AE8166782F683F0608D42F683F06AF
:1018D00005D42F683F0602D42F683F06F3D5AE81AA
:1018E000A6782F683F0608D42F683F0605D42F68D6
:1018F0003F0602D42F683F06F3D5AE81E6782F6805
:101900003F06CBD42F683F06C8D42F683F06C5D406
:101910002F683F06F3D5C1E75969890724D459696F
:10192000C90600D5D7E1596989071DD45969C90687
:1019300000D5D0E15969890716D45969C90600D57F
:10194000C9E1596989070FD45969C906E4D5C2E1CB
:10195000FFFBFFFF04580040FFFF80FFFFFFFFFD7C
:101960001C480040B83A00082968090608D42968CC
:10197000090605D42968090602D429680906F3D5A1
:101980002821A9812968090608D42968090605D4EF
:101990002968090602D429680906F3D51399A98193
:1019A0002968090608D42968090605D429680906A2
:1019B00002D429680906F3D53224AC8129680906C6
:1019C00008D42968090605D42968090602D42968BB
:1019D0000906F3D54327AF812968090608D4296889
:1019E000090605D42968090602D429680906F3D531
:1019F000AC812968090608D42968090605D4296834
:101A0000090602D429680906F3D52D21A981296880
:101A1000090608D42968090605D42968090602D4EC
:101A200029680906F3D53E21A9812968090608D449
:101A30002968090605D42968090602D42968090617
:101A4000F3D51399A9812968090608D429680906DC
:101A500005D42968090602D429680906F3D553215B
:101A6000A9812E68360608D42E68360605D42E685D
:101A7000360602D42E683606F3D50F9EAE812E6848
:101A8000360608D42E68360605D42E68360602D4EB
:101A90002E683606F3D5129EAE812E68360608D41F
:101AA0002E68360605D42E68360602D42E68360611
:101AB000F3D52626AE812E68360608D42E68360663
:101AC00005D42E68360602D42E683606F3D5129E4B
:101AD000AE812E68360608D42E68360605D42E68E8
:101AE000360602D42E683606F3D5139EAE812E68D4
:101AF000360608D42E68360605D42E68360602D47B
:101B00002E683606F3D5AC812C68240608D42C68E0
:101B1000240605D42C68240602D42C682406F3D5A8
:101B2000AF812C68240608D42C68240605D42C68C0
:101B3000240602D42C682406F3D55F24AC81109FC0
:101B40002E68360608D42E68360605D42E6836066A
:101B500002D42E683606F3D5139EAE812E68360663
:101B600008D42E68360605D42E68360602D42E68B0
:101B70003606F3D5A9812E68360608D42E683606B7
:101B800005D42E68360602D42E683606F3D50F9E8D
:101B9000AE812E68360608D42E68360605D42E6827
:101BA000360602D42E683606F3D5AC812C6824069E
:101BB00008D42C68240605D42C68240602D42C688A
:101BC0002406F3D55424AC812C68240608D42C6850
:101BD000240605D42C68240602D42C682406F3D5E8
:101BE0005824AC812C68240608D42C68240605D41B
:101BF0002C68240602D42C682406F3D5139CAC81EF
:101C00002C68240608D42C68240605D42C682406E5
:101C100002D42C682406F3D5A9812968090608D4C2
:101C20002968090605D42968090602D42968090625
:101C3000F3D52921A981129C2968090608D42968AD
:101C4000090605D42968090602D429680906F3D5CE
:101C5000AC812968090608D42968090605D42968D1
:101C6000090602D429680906F3D52121A98129682A
:101C7000090608D42968090605D42968090602D48A
:101C800029680906F3D53D21A9812968090608D4E8
:101C90002968090605D42968090602D429680906B5
:101CA000F3D5AC812968090600D5C3E12968090686
:101CB00000D5BFE12968090600D5BBE129680906FE
:101CC000F0D5B7E12968090608D42968090605D4C2
:101CD0002968090602D429680906F3D52821A981B3
:101CE0002968090608D42968090605D4296809065F
:101CF00002D429680906F3D51399A9812968090630
:101D000008D42968090605D42968090602D4296877
:101D10000906F3D53224AC812968090608D429685C
:101D2000090605D42968090602D429680906F3D5ED
:101D30004321A9812E68360608D42E68360605D4BC
:101D40002E68360602D42E683606F3D5AC812E688E
:101D5000360608D42E68360605D42E68360602D418
:101D60002E683606F3D52D26AE812E68360608D4A9
:101D70002E68360605D42E68360602D42E6836063E
:101D8000F3D53E26AE812E68360608D42E68360678
:101D900005D42E68360602D42E683606F3D5139E77
:101DA000AE812E68360608D42E68360605D42E6815
:101DB000360602D42E683606F3D55327AF812E6837
:101DC000360608D42E68360605D42E68360602D4A8
:101DD0002E683606F3D50F9EAE812E68360608D4DF
:101DE0002E68360605D42E68360602D42E683606CE
:101DF000F3D5129EAE812E68360608D42E683606BC
:101E000005D42E68360602D42E683606F3D526266B
:101E1000AE812E68360608D42E68360605D42E68A4
:101E2000360602D42E683606F3D5129EAE812E6891
:101E3000360608D42E68360605D42E68360602D437
:101E40002E683606F3D5139EAE812E68360608D46A
:101E50002E68360605D42E68360602D42E6836065D
:101E6000F3D5AC812C68240608D42C68240605D44C
:101E70002C68240602D42C682406F3D5A9812C688A
:101E8000240608D42C68240605D42C68240602D421
:101E90002C682406F3D55F24AC812E68360608D45E
:101EA0002E68360605D42E68360602D42E6836060D
:101EB000F3D5139EAE812E68360608D42E683606FA
:101EC00005D42E68360602D42E683606F3D5AF81C7
:101ED0002E68360608D42E68360605D42E683606D7
:101EE00002D42E683606F3D50F9EAE81109F2E6861
:101EF000360608D42E68360605D42E68360602D477
:101F00002E683606F3D5AC812C68240608D42C68DC
:101F1000240605D42C68240602D42C682406F3D5A4
:101F20004E24AC812C68240608D42C68240605D4E1
:101F30002C68240602D42C682406F3D54124AC81F5
:101F40002C68240608D42C68240605D42C682406A2
:101F500002D42C682406F3D5A9812968090608D47F
:101F60002968090605D42968090602D429680906E2
:101F7000F3D54B21A981129C2968090608D4296848
:101F8000090605D42968090602D429680906F3D58B
:101F90004621A9812968090608D42968090605D4BB
:101FA0002968090602D429680906F3D52921A981DF
:101FB0002968090608D42968090605D4296809068C
:101FC00002D429680906F3D5AC812968090608D42A
:101FD0002968090605D42968090602D42968090672
:101FE000F3D52121A9812968090608D429680906A1
:101FF00005D42968090602D429680906F3D53D21CC
:10200000A9812968090608D42968090605D4296820
:10201000090602D429680906F3D5AC8129680906A6
:1020200008D42968090605D42968090602D4296854
:102030000906F3D53021A9812968090608D4296841
:10204000090605D42968090602D429680906F3D5CA
:10205000A8812968090608D42968090605D42968D1
:10206000090602D429680906F3D568210B91A981D4
:102070002968090608D42968090605D429680906CB
:1020800002D429680906F3D5AF812968090608D466
:102090002968090605D42968090602D429680906B1
:1020A000F3D5AC812968090608D42968090605D446
:1020B0002968090602D429680906F3D554210A9132
:1020C000A9812968090608D42968090605D4296860
:1020D000090602D429680906F3D558210991A98176
:1020E0002968090608D42968090605D4296809065B
:1020F00002D429680906F3D51399A981296809062C
:1021000008D42968090605D42968090602D4296873
:102110000906F3D55321A9812968090608D429683D
:10212000090605D42968090602D429680906F3D5E9
:10213000AC812968090608D42968090605D42968EC
:10214000090602D429680906F3D50899A9812968E6
:10215000090608D42968090605D42968090602D4A5
:1021600029680906F3D51199A9812968090608D4B7
:102170002968090605D42968090602D429680906D0
:10218000F3D5AC812968090608D42968090605D465
:102190002968090602D429680906F3D54E21089159
:1021A000A9812968090608D42968090605D429687F
:1021B000090602D429680906F3D54121A9812968B5
:1021C000090608D42968090605D42968090602D435
:1021D00029680906F3D54321A9812968090608D48D
:1021E0002968090605D42968090602D42968090660
:1021F000F3D54B21A9812968090608D42968090665
:1022000005D42968090602D429680906F3D54621B0
:10221000A9812968090608D42968090605D429680E
:10222000090602D429680906F3D5AC812968090694
:1022300008D42968090605D42968090602D4296842
:102240000906F3D50D99A9812968090608D42968DA
:10225000090605D42968090602D429680906F3D5B8
:102260006C210791A9812968090608D42968090603
:1022700005D42968090602D429680906F3D51499FA
:10228000A9812968090608D42968090605D429689E
:10229000090602D429680906F3D50E99A98129688F
:1022A000090608D42968090605D42968090602D454
:1022B00029680906F3D573211391A98129680906B4
:1022C00008D42968090605D42968090602D42968B2
:1022D0000906F3D5AC812968090608D429680906DE
:1022E00005D42968090602D429680906F3D514998A
:1022F000A9812968090608D42968090605D429682E
:10230000090602D429680906F3D51199A98129681B
:10231000090608D42968090605D42968090602D4E3
:1023200029680906F3D5AF812968090608D4296808
:10233000090605D42968090602D429680906F3D5D7
:10234000AC812968090608D42968090605D42968DA
:10235000090602D429680906F3D51399A9812968C9
:10236000090608D42968090605D42968090602D493
:1023700029680906F3D5AF812968090608D42968B8
:10238000090605D42968090602D429680906F3D587
:10239000A8812968090608D42968090605D429688E
:1023A000090602D429680906F3D50099A98129688C
:1023B000090608D42968090605D42968090602D443
:1023C00029680906F3D50599A9815969C90616D561
:1023D000E14E317803E0C9B2A981661C6178002919
:1023E0000DD034462E683606F5D42E683606F2D463
:1023F0002E683606EFD42E683606F3D5EBE7019942
:102400005962D64957260C4606E0AE812679241D2E
:102410000F462C37BC4236D02F683F0608D42F68B1
:102420003F0605D42F683F0602D42F683F06F3D538
:10243000AE8166782F683F0608D42F683F0605D422
:102440002F683F0602D42F683F06F3D5AE81A678E9
:102450002F683F0608D42F683F0605D42F683F0633
:1024600002D42F683F06F3D5AE81E6782F683F0689
:10247000CBD42F683F06C8D42F683F06C5D42F6839
:102480003F06F3D5C1E75969490608D45969490699
:1024900005D45969490602D459694906F3D5B049AA
:1024A0000C46109F06E0A881E078E41C0E46273613
:1024B000B44228D02E68360608D42E68360605D4D5
:1024C0002E68360602D42E683606F3D5A8816078C9
:1024D0002E68360608D42E68360605D42E683606D1
:1024E00002D42E683606F3D5A881A0782E68360669
:1024F000D9D42E683606D6D42E683606D3D42E68A4
:102500003606F3D5CFE718680C99084018601868AC
:10251000029908431860186892490840186010042E
:1025200019680143196018688F49084018600698B7
:10253000800219680143196018688C4908401860C6
:10254000186803990843186089485724014606E033
:10255000AC810C79091D06463436B1424BD02E6849
:10256000360608D42E68360605D42E68360602D400
:102570002E683606F3D5AC814C782E68360608D422
:102580002E68360605D42E68360602D42E68360626
:10259000F3D5AC818C782E68360608D42E683606C2
:1025A00005D42E68360602D42E683606F3D5AC81E3
:1025B000CC782E683606CBD42E683606C8D42E6862
:1025C0003606C5D42E683606F3D5C1E75869C0066D
:1025D00014D55869400711D45869C0060ED55869FA
:1025E00040070BD45869C00608D55869400705D480
:1025F0005869C00602D558694007E7D5129928687E
:10260000000608D42868000605D42868000602D40D
:1026100028680006F3D51398A8812868000608D416
:102620002868000605D42868000602D42868000639
:10263000F3D574200C90A8812868000608D4286877
:10264000000605D42868000602D428680006F3D5E1
:102650001498A8812868000608D42868000605D4C4
:102660002868000602D428680006F3D51198A881CE
:102670002868000608D42868000605D428680006E3
:1026800002D428680006F3D50C98A88128680006B3
:1026900008D42868000605D42868000602D42868F3
:1026A0000006F3D5A9812868000608D4286800062A
:1026B00005D42868000602D428680006F3D51198CE
:1026C000A8812868000608D42868000605D4286870
:1026D000000602D428680006F3D5AF8128680006FA
:1026E00008D42868000605D42868000602D42868A3
:1026F0000006F3D51498A8812868000608D4286835
:10270000000605D42868000602D428680006F3D520
:102710000498A8812868000608D42868000605D413
:102720002868000602D428680006F3D50598A88119
:102730000020002A00D1DAE1F74E09E00C99A981C6
:102740000002196AC9B20818521E110600D1CEE162
:102750007721344615E0C0460C000020183B0008E5
:102760001D3B0008FFFF80FFFFFBFFFFFFFFFFFD9A
:10277000923B0008A981E179E41D37462337BC422A
:1027800060D02F683F0608D42F683F0605D42F6815
:102790003F0602D42F683F06F3D5A98161782F68E0
:1027A0003F0608D42F683F0605D42F683F0602D4A1
:1027B0002F683F06F3D5A981A1782F683F0608D47A
:1027C0002F683F0605D42F683F0602D42F683F06C6
:1027D000F3D5A981E1782F683F0608D42F683F061A
:1027E00005D42F683F0602D42F683F06F3D5A98190
:1027F00021792F683F0608D42F683F0605D42F683B
:102800003F0602D42F683F06F3D5A98161792F686E
:102810003F0608D42F683F0605D42F683F0602D430
:102820002F683F06F3D5A981A1792F683F06A1D46F
:102830002F683F069ED42F683F069BD42F683F0623
:10284000F3D597E75969490705D45969C90602D4F0
:1028500059694906F6D55969C906129C109F00D5D9
:102860002EE12968090608D42968090605D42968D3
:10287000090602D429680906F3D50A99A9812968AD
:10288000090608D42968090605D42968090602D46E
:1028900029680906F3D50B99A9812968090608D486
:1028A0002968090605D42968090602D42968090699
:1028B000F3D5AF812968090608D42968090605D42B
:1028C0002968090602D429680906F3D5AC8129686C
:1028D000090608D42968090605D42968090602D41E
:1028E00029680906F3D50F99A9812968090608D432
:1028F0002968090605D42968090602D42968090649
:10290000F3D50999A9812968090608D42968090617
:1029100005D42968090602D429680906F3D508995F
:10292000A9812968090608D42968090605D42968F7
:10293000090602D429680906F3D54521A981296829
:10294000090608D42968090605D42968090602D4AD
:1029500029680906F3D5AC812968090608D42968D5
:10296000090605D42968090602D429680906F3D5A1
:102970000D99A9812968090608D42968090605D492
:102980002968090602D429680906F3D50799A9819F
:102990002968090608D42968090605D429680906A2
:1029A00002D429680906F3D51499A9812968090672
:1029B00008D42968090605D42968090602D42968BB
:1029C0000906F3D50E99A9812968090608D4296852
:1029D000090605D42968090602D429680906F3D531
:1029E0001399A9812968090608D42968090605D41C
:1029F0002968090602D429680906F3D5AC8129683B
:102A0000090608D42968090605D42968090602D4EC
:102A100029680906F3D51499A9812968090608D4FB
:102A20002968090605D42968090602D42968090617
:102A3000F3D51199A9812968090608D429680906DE
:102A400005D42968090602D429680906F3D5AF819F
:102A50002968090608D42968090605D429680906E1
:102A600002D429680906F3D5AC812968090608D47F
:102A70002968090605D42968090602D429680906C7
:102A8000F3D51399A9812968090608D4296809068C
:102A900005D42968090602D429680906F3D5AF814F
:102AA0002968090600D549E62968090600D545E6E2
:102AB0002968090600D541E629680906F0D53DE6F2
:102AC000144C217803E0C9B2A981541C5178002923
:102AD0000DD022462C682406F5D42C682406F2D4A6
:102AE0002C682406EFD42C682406F3D5EBE759694B
:102AF000490608D45969490605D45969490602D4DA
:102B000059694906F3D5069989031A680A431A6078
:102B100015B0F0BD0C0000206E3B000888B001220B
:102B2000024030326946CA778207D20F30328A7744
:102B30004207D20F30324A770207D20F30320A777B
:102B4000C206D20F3032CA768206D20F30328A766F
:102B50004206D20F30324A76C2B2D20930320A76F9
:102B6000C205D20F3032CA758205D20F30328A7553
:102B70004205D20F30324A750205D20F30320A7543
:102B8000C204D20F3032CA748204D20F30328A7437
:102B90004204D20F30324A740204D20F30320A7427
:102BA000C203D20F3032CA738203D20F30328A731B
:102BB0004203D20F30324A73C202D20F3032CA728D
:102BC0000203D20F30320A738202D20F30328A727D
:102BD0004202D20F30324A720202D20F30320A72EF
:102BE000C201D20F3032CA718201D20F30328A71E3
:102BF0004201D20F30324A710201D20F30320A71D3
:102C0000C200D20F3032CA708200D20F30328A70C6
:102C10004200D20F30324A70C00F30306C4A04E0AC
:102C200090814878491C00280CD013681B06F7D403
:102C300013681B06F4D413681B06F1D413681B0633
:102C4000F3D5EDE708B07047F0B591B0099208915F
:102C50005D494A1C5D4F3B6813403B6040003A6849
:102C600002433A607F2000043A6882433A600123BD
:102C700058043A6802433A60386808403860580699
:102C80003968814339600A935803396801433960D0
:102C90004F4E3068000608D43068000605D430680E
:102CA000000602D430680006F3D54324B4813068AE
:102CB000000608D43068000605D43068000602D447
:102CC00030680006F3D55225B5813068000608D477
:102CD0003068000605D43068000602D4306800066B
:102CE000F3D532200F90B0813068000608D43068E8
:102CF000000605D43068000602D430680006F3D51B
:102D00003A200E90B0813868FFF708FF314857220B
:102D1000014606E0B2818A79891D0346363399421D
:102D20006FD033681B0608D433681B0605D433689C
:102D30001B0602D433681B06F3D5B2814A78336888
:102D40001B0608D433681B0605D433681B0602D45F
:102D500033681B06F3D5B2818A7833681B0608D422
:102D600033681B0605D433681B0602D433681B0680
:102D7000F3D5B281CA7833681B0608D433681B06C2
:102D800005D433681B0602D433681B06F3D5B28121
:102D90000A7933681B0608D433681B0605D43368E8
:102DA0001B0602D433681B06F3D5B2814A79336817
:102DB0001B06AFD433681B06ACD433681B06A9D4FA
:102DC00033681B06F3D5A5E7FFFBFFFF045800405F
:102DD0001C4800405E3A00087869C00614D478693F
:102DE000800711D47869C0060ED4786980070BD4A7
:102DF0007869C00608D47869800705D47869C00668
:102E000002D478698007E7D57869C00600D5E5E384
:102E10003068000608D43068000605D43068000623
:102E200002D430680006F3D53020B0813068000647
:102E300008D43068000605D43068000602D4306833
:102E40000006F3D50E98B0813068000608D43068CB
:102E5000000605D43068000602D430680006F3D5B9
:102E60002020B0813168090608D43168090605D4EC
:102E70003168090602D431680906F3D55423B381B9
:102E80003168090608D43168090605D43168090695
:102E900002D431680906F3D56821B1813168090689
:102EA00008D43168090605D43168090602D43168AE
:102EB0000906F3D565211091B1813168090608D45E
:102EC0003168090605D43168090602D4316809065B
:102ED000F3D5B0813168090608D43168090605D4F4
:102EE0003168090602D431680906F3D5B381316827
:102EF000090608D43168090605D43168090602D4E8
:102F000031680906F3D558210291B181316809066B
:102F100008D43168090605D43168090602D431683D
:102F20000906F3D549210191B1813168090608D418
:102F30003168090605D43168090602D431680906EA
:102F4000F3D553210D91B1813168090608D4316858
:102F5000090605D43168090602D431680906F3D59B
:102F6000B0813168090608D43168090605D4316892
:102F7000090602D431680906F3D56621B1813168AA
:102F8000090608D43168090605D43168090602D457
:102F900031680906F3D56C21B1813168090608D47E
:102FA0003168090605D43168090602D4316809067A
:102FB000F3D56122B2813168090608D43168090667
:102FC00005D43168090602D431680906F3D56721B2
:102FD0000591B1813168090608D43168090605D424
:102FE0003168090602D431680906F3D573210B91C3
:102FF000B1813168090608D43168090605D4316801
:10300000090602D431680906F3D5B0813168090692
:1030100008D43168090605D43168090602D431683C
:103020000906F3D5B2813168090608D4316809066A
:1030300005D43168090602D431680906F3D5722136
:103040000391B1813168090608D43168090605D4B5
:103050003168090602D431680906F3D51099B181A7
:103060003168090608D43168090605D431680906B3
:1030700002D431680906F3D5B0813168090608D455
:103080003168090605D43168090602D43168090699
:10309000F3D50B99B1813168090608D43168090666
:1030A00005D43168090602D431680906F3D51099B0
:1030B000B1813168090608D43168090605D4316840
:1030C000090602D431680906F3D574210C91B18147
:1030D0003168090608D43168090605D43168090643
:1030E00002D431680906F3D5069507942E21009184
:1030F000B1813168090608D43168090605D4316800
:10310000090602D431680906F3D50A210491B18178
:1031100008997962FC4A5721144606E0B181617929
:10312000641D15462835AC424DD035682D0608D4AF
:1031300035682D0605D435682D0602D435682D0670
:10314000F3D5B181617835682D0608D435682D0630
:1031500005D435682D0602D435682D06F3D5B18126
:10316000A17835682D0608D435682D0605D4356854
:103170002D0602D435682D06F3D5B181E178356886
:103180002D0608D435682D0605D435682D0602D4E1
:1031900035682D06F3D5B181217935682D06BDD46A
:1031A00035682D06BAD435682D06B7D435682D0696
:1031B000F3D5B3E77969890708D47969890705D414
:1031C0007969890702D479698907F3D5079A069C3A
:1031D000019D3168090608D43168090605D43168B3
:1031E000090602D431680906F3D53121B18131686D
:1031F000090608D43168090605D43168090602D4E5
:1032000031680906F3D50E99B1813168090608D4F1
:103210003168090605D43168090602D43168090607
:10322000F3D5B0813168090608D43168090605D4A0
:103230003168090602D431680906F3D5B5813168D1
:10324000090608D43168090605D43168090602D494
:1032500031680906F3D50F99B1813168090608D4A0
:103260003168090605D43168090602D431680906B7
:10327000F3D5B2813168090608D43168090605D44E
:103280003168090602D431680906F3D55F22B2819C
:103290003168090608D43168090605D43168090681
:1032A00002D431680906F3D5B5813168090608D41E
:1032B0003168090605D43168090602D43168090667
:1032C000F3D50D99B1813168090608D43168090632
:1032D00005D43168090602D431680906F3D5B481F2
:1032E0003168090608D43168090605D43168090631
:1032F00002D431680906F3D5B2813168090608D4D1
:103300003168090605D43168090602D43168090616
:10331000F3D5B3813168090608D43168090605D4AC
:103320003168090602D431680906F3D50299B181E2
:103330003168090608D43168090605D431680906E0
:1033400002D431680906F3D5B5813168090608D47D
:103350003168090605D43168090602D431680906C6
:10336000F3D50D99B1813168090608D43168090691
:1033700005D43168090602D431680906F3D5B08155
:103380003168090608D43168090605D43168090690
:1033900002D431680906F3D569210E91B1813168F3
:1033A000090608D43168090605D43168090602D433
:1033B00031680906F3D50B99B1813168090608D443
:1033C0003168090605D43168090602D43168090656
:1033D000F3D5B0813168090608D43168090605D4EF
:1033E0003168090602D431680906F3D50B99B18119
:1033F0003168090608D43168090605D43168090620
:1034000002D431680906F3D51099B18131680906F3
:1034100008D43168090605D43168090602D4316838
:103420000906F3D50C99B1813168090608D43168D1
:10343000090605D43168090602D431680906F3D5B6
:103440000099B18109997962F94957250C4606E03E
:10345000B5816579641D0A46323294424DD0326896
:10346000120608D43268120605D43268120602D455
:1034700032681206F3D5B58165783268120608D431
:103480003268120605D43268120602D43268120677
:10349000F3D5B581A5783268120608D432681206D1
:1034A00005D43268120602D432681206F3D5B5810B
:1034B000E5783268120608D43268120605D43268FC
:1034C000120602D432681206F3D5B5812579326826
:1034D0001206BDD432681206BAD432681206B7D4C6
:1034E00032681206F3D5B3E77969490608D47969D9
:1034F000490605D47969490602D479694906F3D5A4
:10350000CC490D46079C08E0453B0008B381EB79A8
:10351000ED1D0A462332954278D03268120608D44F
:103520003268120605D43268120602D432681206D6
:10353000F3D5B3816B783268120608D4326812066C
:1035400005D43268120602D432681206F3D5B3816C
:10355000AB783268120608D43268120605D4326895
:10356000120602D432681206F3D5B381EB783268C2
:10357000120608D43268120605D43268120602D444
:1035800032681206F3D5B3812B793268120608D45B
:103590003268120605D43268120602D43268120666
:1035A000F3D5B3816B793268120608D432681206FB
:1035B00005D43268120602D432681206F3D5B381FC
:1035C000AB7932681206A1D4326812069ED43268F2
:1035D00012069BD432681206F3D597E7934A107807
:1035E00003E0C0B2B0814A1C4878002800D11AE13B
:1035F000114632681206F4D432681206F1D43268E9
:103600001206EED432681206F3D5EAE70A99890366
:103610003A680A433A603168090608D431680906F5
:1036200005D43168090602D431680906F3D557215B
:10363000B181069A3168090608D43168090605D4B3
:103640003168090602D431680906F3D50399B181BE
:103650003168090608D43168090605D431680906BD
:1036600002D431680906F3D50E99B1813168090693
:1036700008D43168090605D43168090602D43168D6
:103680000906F3D50C99B1813168090608D431686F
:10369000090605D43168090602D431680906F3D554
:1036A0001099B1813168090608D43168090605D43A
:1036B0003168090602D431680906F3D5B081316852
:1036C000090608D43168090605D43168090602D410
:1036D00031680906F3D5B2813168090608D431682A
:1036E000090605D43168090602D431680906F3D504
:1036F0001099B1813168090608D43168090605D4EA
:103700003168090602D431680906F3D50599B181FB
:103710003168090608D43168090605D431680906FC
:1037200002D431680906F3D5B0813168090608D49E
:103730003168090605D43168090602D431680906E2
:10374000F3D50D99B1813168090608D431680906AD
:1037500005D43168090602D431680906F3D50C99FD
:10376000B1813168090608D43168090605D4316889
:10377000090602D431680906F3D56F21B181316899
:10378000090608D43168090605D43168090602D44F
:1037900031680906F3D57021B1813168090608D472
:1037A0003168090605D43168090602D43168090672
:1037B000F3D5B0813068000608D43068000605D41F
:1037C0003068000602D430680006F3D5B481306852
:1037D000000608D43068000605D43068000602D41C
:1037E00030680006F3D5B2813068000608D430682E
:1037F000000605D43068000602D430680006F3D510
:103800000F98B0813068000608D43068000605D4EF
:103810003068000602D430680006F3D50498B08101
:103820003868FFF77BF911B0F0BDC0460C000020EE
:10383000E53A0008213B000843088B421AD30022D6
:1038400003098B4279D3030A8B425ED3030B8B426D
:1038500042D3030C8B4227D30902FF2212BA030C76
:103860008B4202D31212090203D0030B8B4233D3D3
:103870001AE0D3E0411A8041401C704703460B43D5
:1038800071D443088B42F5D3002203098B4254D3F1
:10389000030A8B4239D3030B8B421DD3030C8B429B
:1038A00002D394466EE0090AC30B8B4201D3CB03CB
:1038B000C01A5241830B8B4201D38B03C01A524171
:1038C000430B8B4201D34B03C01A5241030B8B4273
:1038D00001D30B03C01A5241C30A8B4201D3CB025E
:1038E000C01A5241830A8B4201D38B02C01A524143
:1038F000430A8B4201D34B02C01A5241030A8B4246
:1039000001D30B02C01A5241CDD2C3098B4201D35D
:10391000CB01C01A524183098B4201D38B01C01ADB
:10392000524143098B4201D34B01C01A5241030952
:103930008B4201D30B01C01A5241C3088B4201D301
:10394000CB00C01A524183088B4201D38B00C01AAE
:10395000524143088B4201D34B00C01A5241411AD5
:10396000524110007047CA0F00D04942031000D3E3
:103970004042534000229C4603098B422DD3030A48
:103980008B4212D38901FC2212BA030A8B420CD358
:10399000890192118B4208D3890192118B4204D381
:1039A000890137D0921100E08909C3098B4201D304
:1039B000CB01C01A524183098B4201D38B01C01A3B
:1039C000524143098B4201D34B01C01A52410309B2
:1039D0008B4201D30B01C01A5241C3088B4201D361
:1039E000CB00C01A524183088B4201D38B00C01A0E
:1039F0005241D9D243088B4201D34B00C01A5241E5
:103A0000411A00D201465241104663465B1000D372
:103A10004042704763465B1000D3404201B500212D
:103A2000004201D0C9430846C046C04602BD00005E
:103A30000000000000000102030406070809020359
:103A40000405060708090A0B0C0D0E0F10100102E1
:103A5000030405060708090A0B0C0D0E0F10576129
:103A6000697420756E74696C20656974686572206C
:103A70006F66207468652054584953206F72204E39
:103A800041434B4620666C61677320617265207309
:103A900065742E0A00777269746520646174612010
:103AA0006E6F74206D617463682C20726574727916
:103AB0002C207265673A0A00776169742065697421
:103AC000686572207468652054584953206F7220CD
:103AD0004E41434B4620666C6167732061726520DE
:103AE0007365742E005761697420756E74696C205B
:103AF00074686520544320285472616E7366657241
:103B000020436F6D706C6574652920666C61672059
:103B10006973207365742E00576169742074686539
:103B200020544320285472616E7366657220436F7F
:103B30006D706C6574652920666C616720697320FF
:103B40007365742E005761697420756E74696C20FA
:103B5000746865204932435F4953525F5458495352
:103B600020666C6167206973207365742E0077612D
:103B7000697420666F722052584E45206F72204E35
:103B800041434B4620666C61672061726520736516
:103B900074005761697420756E74696C206569746E
:103BA000686572206F66207468652052584E452003
:103BB0006F72204E41434B4620666C6167732061F3
:103BC0007265207365740000E83B00080000002067
:103BD000200000001C010008083C00082000002014
:103BE000680600003C01000801000000040000001D
:103BF00000127A00536C617665206E6F20726573D7
:083C0000706F6E736521000076
:04000005080000C12E
:00000001FF
