:020000040800F2
:100000008806002081010008A3090008A109000852
:1000100000000000000000000000000000000000E0
:10002000000000000000000000000000A709000818
:100030000000000000000000A5090008A909000850
:100040009301000893010008930100089301000840
:100050009301000893010008930100089301000830
:100060009301000893010008930100089301000820
:100070009301000893010008930100089301000810
:100080009301000893010008930100089301000800
:1000900093010008930100089301000893010008F0
:1000A00093010008930100089301000893010008E0
:1000B00093010008930100089301000893010008D0
:1000C00000F002F800F04CF812A030C808382418EC
:1000D0002D18AC4201D100F043F80FCCA246AB463C
:1000E0000CA730CF2D1B083F3F197C427F1E544484
:1000F0002D090426F441641EAC4201D300F030F80F
:100100000126334200D0FB1A3343984754465D46DC
:10011000DFE70000942B0000B42B0000103A02D35C
:1001200078C878C1FAD8520701D330C830C101D598
:1001300004680C6070470000704700000023002432
:1001400000250026103A01D378C1FBD8520700D30E
:1001500030C100D50B6070471FB51FBD10B510BD75
:1001600000F04DF81146FFF7F7FF01F019FB00F022
:1001700065F803B4FFF7F2FF03BC00F06BF8000072
:100180000748804707480047FEE7FEE7FEE7FEE72F
:10019000FEE7FEE704480549054A064B70470000A4
:1001A000B1090008C100000888000020880600206E
:1001B000880200208802002001E004C0091F0429F1
:1001C000FBD28B0701D50280801CC90700D00270CA
:1001D000704700290BD0C30702D00270401C491E93
:1001E000022904D3830702D50280801C891EE3E71D
:1001F0000022EEE70022DFE7704770477047754640
:1002000000F024F8AE46050069465346C008C00019
:10021000854618B020B5FFF7BDFF60BCB646002686
:100220000027C0C5C0C5C0C5C0C5C0C5C0C5C0C504
:10023000C0C5403D490849008D46704710B5044689
:10024000C046C0462046FFF794FF10BD00487047E7
:100250002000002001491820ABBEFEE72600020066
:1002600070470000054800687047C0461A4800788B
:1002700002490A68101808607047C04680000020D4
:1002800080B58548016810220A430260032000F00F
:1002900005F800F023F8002080BDC04670B5044684
:1002A0007D20C0000C4E317802F0BAFB0146844834
:1002B000006802F0B5FB00F059FB0125032C08D8BB
:1002C000002806D10025E84321462A4600F01CF804
:1002D0007460284670BDC0460000002082B0094806
:1002E00001680122114301600168114001910199E7
:1002F000110742680A434260406808400090009835
:1003000002B0704718100240002805D403220346AB
:1003100093430A4A9A1803E00C220240064BD21873
:100320008007C00E8901C9B28140FF238340106855
:10033000984308431060704714ED00E000E400E0CB
:10034000F0B581B0002846D00446534A1368012016
:1003500003408B4208D213680126B3430B4313605A
:10036000126832408A4237D1009121688A074B4B8C
:1003700010D54A0706D5072212021B681343474AC5
:100380001360464B1A68F0239A43A3681343434A09
:100390001360424BC90722D13F490868012630400B
:1003A000009A904205D90868B04308600868C00701
:1003B00012D12078400706D5072000021968814332
:1003C000E068084318601A681007810F3548022951
:1003D00012D2044650E00126304601B0F0BD6168FB
:1003E00003290DD01A1F02290FD0012912D112683A
:1003F00092030646F0D511E0032926D12A4C3BE0B2
:100400001A6B92030646E7D508E012689201064689
:10041000E2D503E0126892070646DDD51868032688
:10042000B04308431860FFF71DFF07461C4D1B4BE8
:1004300018680C210140606880008142ACD0FFF751
:1004400011FFC01BA842F2D9C6E70321CB03134911
:10045000896A0F240C401549095D94021A40240F43
:10046000134D2C5D9A4202D033049A4200E00E48AC
:1004700002F0D6FA4443094B18680006000F0D49F4
:10048000085CC4400E4804600320FFF707FF002605
:10049000304601B0F0BDC0460020024004100240CA
:1004A0008813000000127A00006CDC02362C000871
:1004B000262C0008162C0008014800687047C0462A
:1004C00008000020F0B587B004460120002C00D1C0
:1004D00045E204902078C007F94E05940CD071686D
:1004E0000C200140042900D090E03068800303D53F
:1004F0006068002800D120E12078800721D570684D
:100500000007800F0ED070680C210140082900D030
:100510009DE00320C003716801400120C0038142B7
:1005200000D094E030688007059C03D5E06801287E
:1005300000D002E13068F82188432169C9000143F5
:100540003160059C2078000724D42078400737D4F8
:100550002078C00600D4D3E005984069411D00D141
:10056000C2E0012800D030E1706B042101437163C7
:10057000706B012101437163FFF774FE0546706BD8
:10058000800700D5B4E0FFF76DFE411B0320022970
:10059000F5D9E4E1706AE169002900D181E0012127
:1005A00008437062FFF75EFE0546706A8007CCD490
:1005B000FFF758FE401B0228F7D9032007B0F0BD13
:1005C000012003900107F0690840029006D1F0690C
:1005D0000843F061F0690840069006980191E14FE8
:1005E0003868C0054AD4039804023868204338604C
:1005F000FFF738FE0546386820423FD1FFF732FE4C
:10060000401B6428F7D9032007B0F0BD7168014092
:10061000082908D10320C0037168014001200004AB
:10062000814200D161E7616801204704002900D1BF
:1006300017E1052900D12BE1012900D12CE10104AA
:1006400032688A43326081043068884327E1306829
:10065000059CE168002936D0012108433060FFF78E
:1006600001FE05463068800700D563E7FFF7FAFD15
:10067000401B0228F6D9032007B0F0BD059880681A
:10068000002800D1B6E0052800D1C9E0012800D13A
:10069000CAE0306A039988433062306A0421884393
:1006A000C5E0012188437062FFF7DCFD0546706AF2
:1006B000800700D449E7FFF7D5FD401B0228F6D993
:1006C000032007B0F0BD012188433060FFF7CAFD69
:1006D00005463068800700D433E7FFF7C3FD411BB0
:1006E00003200229F5D93AE1706B04218843706335
:1006F000706BF821884305998969C90001437163CA
:100700000598007880060BD571680C2001400C29F3
:1007100039D1706B800303D50598006A01280CD18C
:100720000598446A002C00D1E1E070680C2101407A
:10073000082905D1012C00D0C4E0049807B0F0BD11
:100740000120020631680492914331604706FFF7A9
:1007500089FD0546022C0BD1049C3068384200D13B
:10076000DEE0FFF77FFD411B03200229F5D9F6E00B
:100770003068384200D1BAE0FFF774FD411B032016
:100780000229F5D9EBE071680140082905D1032061
:10079000C003716801408142BBD0706B0599096A42
:1007A000002900D1A9E001210A04104370634C0420
:1007B000FFF758FD0546706B2042B1D1FFF752FD9F
:1007C000411B03200229F6D9C9E0706B04210143C3
:1007D0007163706B012188437063FFF743FD054629
:1007E000706B80078CD5FFF73DFD411B032002296C
:1007F000F6D9B4E0306A039988433062306A042144
:1008000088433062584CFFF72DFD0546306A80075B
:100810001DD5FFF727FD411B0320A142F6D99EE01D
:10082000306A042101433162306A0399084330621F
:100830004D4CFFF717FD0546306A800707D4FFF7D8
:1008400011FD401BA042F7D9032007B0F0BD02986C
:100850000028059C00D07BE6F06901998843F0618F
:1008600076E6010432688A4332608004316881434D
:100870003160FFF7F7FC0546059C3068384200D12F
:100880003AE6FFF7EFFC411B03206429F5D966E047
:10089000810432680A4332600104306808433060E2
:1008A000FFF7E0FC05463068384200D024E6FFF749
:1008B000D9FC401B6428F6D9032007B0F0BDC04620
:1008C000001002400320C20370680240F16A059CD8
:1008D000A36A9A42049D0DD10F221140236B9942C5
:1008E00008D191040840E16A8842284637D10020A7
:1008F00007B0F0BD284607B0F0BD01210A049043BF
:1009000070634C04FFF7AEFC0546706B204200D1CB
:1009100006E7FFF7A7FC411B03200229F5D91EE0DB
:10092000F06A0F218843059A116B0143F1627B2025
:10093000C00371688143D06A0843916A01437160C2
:10094000306820433060FFF78DFC04463068384241
:10095000CDD1FFF787FC011B03200229F6D907B090
:10096000F0BDC0460070004088130000401E010E1C
:1009700001D0012070470749074A506007480368C3
:100980000B4003218907591801600020906007215E
:1009900011607047FFFFFF0010E000E020ED00E075
:1009A000FEE7FEE77047704780B5FFF75FFC80BD4C
:1009B0007047000010B500F06FF801218A05344837
:1009C0000368134303600B07324804681C43046048
:1009D000036813241C4304600F231B0204681C4398
:1009E00004604B0404681C43046003681343036001
:1009F000103802680A43026059490A68120608D48E
:100A00000A68120605D40A68120602D40A68120699
:100A1000F3D543228A810A68120608D40A681206AE
:100A200005D40A68120602D40A681206F3D55222C7
:100A30008A810A68120608D40A68120605D40A6870
:100A4000120602D40A681206F3D531228A810A6896
:100A5000120608D40A68120605D40A68120602D4DF
:100A60000A681206F3D53A228A810A68120608D467
:100A70000A68120605D40A68120602D40A68120629
:100A8000F3D50A228A81006801F032FF10BDC0460A
:100A90001C10024010580040F0B58BB001208104BA
:100AA0002C4A13680B431360C10413680B43136093
:100AB000C107294C22688A432260810722688A4341
:100AC0002260C10522680A432260810522688A43A8
:100AD0002260C10622680A432260810622688A4396
:100AE0002260410722688A432260010722680A4384
:100AF00022601A490A6802239A430A600A6802437C
:100B00000A600F221303656A9D4365620303656AE9
:100B10001D4365621205636A9343636205221205F1
:100B2000636A13436362C2026368134363604203F0
:100B300063681343636082036368934363604B6835
:100B400083434B606369134363614A6902434A61AB
:100B5000034D07E01410024000040048000800485C
:100B60001C4800402868000608D42868000605D400
:100B70002868000602D428680006F3D54727AF810D
:100B80002868000608D42868000605D428680006EE
:100B900002D428680006F3D55021A98128680006F0
:100BA00008D42868000605D42868000602D42868FE
:100BB0000006F3D549200590A8812868000608D4CE
:100BC0002868000605D42868000602D428680006B4
:100BD000F3D54F22AA812868000608D428680006A9
:100BE00005D42868000602D428680006F3D54226FA
:100BF000AE812868000608D42868000605D4286855
:100C0000000602D428680006F3D52D200490A881A0
:100C10002868000608D42868000605D4286800065D
:100C200002D428680006F3D53E200390A8812868E6
:100C3000000608D42868000605D42868000602D4F7
:100C400028680006F3D54120A8812868000608D44A
:100C50002868000605D42868000602D42868000623
:100C6000F3D54620A8812868000608D42868000625
:100C700005D42868000602D428680006F3D552205F
:100C80000890A8812868000608D42868000605D4C2
:100C90002868000602D428680006F3D55B20A881E6
:100CA0002868000608D42868000605D428680006CD
:100CB00002D428680006F3D53120A88128680006F0
:100CC00008D42868000605D42868000602D42868DD
:100CD0000006F3D55D20A8812868000608D428689E
:100CE000000605D42868000602D428680006F3D55B
:100CF00009920A913A200790A8812868000608D432
:100D00002868000605D42868000602D42868000672
:100D1000F3D50A200690A881606A01F0E9FD2868F1
:100D2000000608D42868000605D42868000602D406
:100D300028680006F3D5AF810A99099A2868000649
:100D400008D42868000605D42868000602D428685C
:100D50000006F3D5A9812868000608D42868000693
:100D600005D42868000602D428680006F3D5059843
:100D7000A8812868000608D42868000605D42868D9
:100D8000000602D428680006F3D5AA812868000668
:100D900008D42868000605D42868000602D428680C
:100DA0000006F3D5AE812868000608D4286800063E
:100DB00005D42868000602D428680006F3D50498F4
:100DC000A8812868000608D42868000605D4286889
:100DD000000602D428680006F3D50398A881286885
:100DE000000608D42868000605D42868000602D446
:100DF00028680006F3D5AA812868000608D4286868
:100E0000000605D42868000602D428680006F3D539
:100E100054200290A8812868000608D4286800069B
:100E200005D42868000602D428680006F3D55920A6
:100E30000190A8812868000608D42868000605D417
:100E40002868000602D428680006F3D5A98128681E
:100E5000000608D42868000605D42868000602D4D5
:100E600028680006F3D545200090A8812868000670
:100E700008D42868000605D42868000602D428682B
:100E80000006F3D50898A8812868000608D42868C9
:100E9000000605D42868000602D428680006F3D5A9
:100EA0002026AE812868000608D42868000605D4EC
:100EB0002868000602D428680006F3D50798A881A0
:100EC0002868000608D42868000605D428680006AB
:100ED00002D428680006F3D50698A881606801F05E
:100EE00007FD2868000608D42868000605D428688D
:100EF000000602D428680006F3D5AF810A99099A42
:100F00002868000608D42868000605D4286800066A
:100F100002D428680006F3D5A9812868000608D401
:100F20002868000605D42868000602D42868000650
:100F3000F3D50598A8812868000608D4286800061B
:100F400005D42868000602D428680006F3D5AA81D3
:100F50002868000608D42868000605D4286800061A
:100F600002D428680006F3D54320A881286800062B
:100F700008D42868000605D42868000602D428682A
:100F80000006F3D50498A8812868000608D42868CC
:100F9000000605D42868000602D428680006F3D5A8
:100FA0000398A8812868000608D42868000605D49C
:100FB0002868000602D428680006F3D5AA812868AC
:100FC000000608D42868000605D42868000602D464
:100FD00028680006F3D50298A8812868000608D47E
:100FE0002868000605D42868000602D42868000690
:100FF000F3D50198A8812868000608D4286800065F
:1010000005D42868000602D428680006F3D5A98113
:101010002868000608D42868000605D42868000659
:1010200002D428680006F3D50098A8812868000635
:1010300008D42868000605D42868000602D4286869
:101040000006F3D50898A8812868000608D4286807
:10105000000605D42868000602D428680006F3D5E7
:10106000AE812868000608D42868000605D42868E0
:10107000000602D428680006F3D5AE812868000671
:1010800008D42868000605D42868000602D4286819
:101090000006F3D50798A8812868000608D42868B8
:1010A000000605D42868000602D428680006F3D597
:1010B0000698A881606801F01BFC0BB0F0BD000031
:1010C000F0B587B00124E1041D4802680A430260BC
:1010D00062021C490B6813430B6022020B689343A6
:1010E0000B60E2020B6813430B60A2020B68934390
:1010F0000B6022040B6A13430B6222050B6A134335
:101100000B62A10482680A438260FFF7D5F9E121EE
:10111000490201F085FC0C4D29461039086028462B
:101120001C38016808220A430260016804220A434D
:101130000260016821430160FFF73CFC06E0C04605
:1011400014100240000800481C48004028680006AF
:1011500008D42868000605D42868000602D4286848
:101160000006F3D56C20A8812968090608D42968EF
:10117000090605D42968090602D429680906F3D5A9
:1011800061210691A9812968090608D42968090600
:1011900005D42968090602D429680906F3D5622115
:1011A000A9812968090608D42968090605D429688F
:1011B000090602D429680906F3D53521A9812968D1
:1011C000090608D42968090605D42968090602D445
:1011D00029680906F3D55F21A9812968090608D481
:1011E0002968090605D42968090602D42968090670
:1011F000F3D53121A9812968090608D4296809068F
:1012000005D42968090602D429680906F3D53A21CC
:101210000291A9812968090608D42968090605D41C
:101220002968090602D429680906F3D52026AE816B
:101230002968090608D42968090605D42968090619
:1012400002D429680906F3D568210491A981296887
:10125000090608D42968090605D42968090602D4B4
:1012600029680906F3D56524AC812968090608D4E4
:101270002968090605D42968090602D429680906DF
:10128000F3D5A8812968090608D42968090605D478
:101290002968090602D429680906F3D50596A881AC
:1012A0002868000608D42868000605D428680006C7
:1012B00002D428680006F3D56F200190A881692028
:1012C0000F21012200F098FA06462868000608D48B
:1012D0002868000605D42868000602D4286800069D
:1012E000F3D55220A8810699059A2868000608D4EB
:1012F0002868000605D42868000602D4286800067D
:10130000F3D5AC812868000608D42868000605D407
:101310002868000602D428680006F3D5A981286849
:10132000000608D42868000605D42868000602D400
:1013300028680006F3D56427AF812868000608D422
:101340002868000605D42868000602D4286800062C
:10135000F3D5AA812868000608D42868000605D4B9
:101360002868000602D428680006F3D5AF812868F3
:10137000000608D42868000605D42868000602D4B0
:1013800028680006F3D50394A9812868000608D4CC
:101390002868000605D42868000602D428680006DC
:1013A000F3D57424AC812868000608D428680006A8
:1013B00005D42868000602D428680006F3D5A98160
:1013C0002868000608D42868000605D428680006A6
:1013D00002D428680006F3D50298A8812868000680
:1013E00008D42868000605D42868000602D42868B6
:1013F0000006F3D50A20A881304601F079FAD32EF1
:1014000000D0CBE0059E2868000608D428680006B6
:1014100005D42868000602D428680006F3D5722097
:10142000A88106992868000608D42868000605D413
:101430002868000602D428680006F3D50398A8811E
:101440002868000608D42868000605D42868000625
:1014500002D428680006F3D5A9812868000608D4BC
:101460002868000605D42868000602D4286800060B
:10147000F3D5AF812868000608D42868000605D493
:101480002868000602D428680006F3D5AE812868D3
:10149000000608D42868000605D42868000602D48F
:1014A00028680006F3D5AF812868000608D42868AC
:1014B000000605D42868000602D428680006F3D583
:1014C000A9812868000608D42868000605D4286881
:1014D000000602D428680006F3D5AC81286800060F
:1014E00008D42868000605D42868000602D42868B5
:1014F0000006F3D5A9812868000608D428680006EC
:1015000005D42868000602D428680006F3D5AE8109
:101510002868000608D42868000605D42868000654
:1015200002D428680006F3D56D20A881286800063B
:1015300008D42868000605D42868000602D4286864
:101540000006F3D5A9812868000608D4286800069B
:1015500005D42868000602D428680006F3D5AC81BB
:101560002868000608D42868000605D42868000604
:1015700002D428680006F3D56320A88128680006F5
:1015800000D509E12868000600D505E128680006B5
:1015900000D501E128680006F0D5FDE0059A28682D
:1015A000000608D42868000605D42868000602D47E
:1015B00028680006F3D57220A881069928680006DD
:1015C00008D42868000605D42868000602D42868D4
:1015D0000006F3D50398A8812868000608D4286877
:1015E000000605D42868000602D428680006F3D552
:1015F000A9812868000608D42868000605D4286850
:10160000000602D428680006F3D5AF8128680006DA
:1016100008D42868000605D42868000602D4286883
:101620000006F3D5AA812868000608D428680006B9
:1016300005D42868000602D428680006F3D5AF81D7
:101640002868000608D42868000605D42868000623
:1016500002D428680006F3D5A9812868000608D4BA
:101660002868000605D42868000602D42868000609
:10167000F3D5AC812868000608D42868000605D494
:101680002868000602D428680006F3D5A9812868D6
:10169000000608D42868000605D42868000602D48D
:1016A00028680006F3D5AA812868000608D42868AF
:1016B000000605D42868000602D428680006F3D581
:1016C0006E20A8812868000608D42868000605D482
:1016D0002868000602D428680006F3D50198A8817E
:1016E0002868000608D42868000605D42868000683
:1016F00002D428680006F3D5AC812868000608D417
:101700002868000605D42868000602D42868000668
:10171000F3D5AA812868000608D42868000605D4F5
:101720002868000602D428680006F3D56D20A88139
:101730002868000608D42868000605D42868000632
:1017400002D428680006F3D5A9812868000608D4C9
:101750002868000605D42868000602D42868000618
:10176000F3D5AC812868000608D42868000605D4A3
:101770002868000602D428680006F3D56320A881F3
:101780002868000608D42868000605D428680006E2
:1017900002D428680006F3D50498A88107B0F0BDEC
:1017A00092B0FEF76DFD05AD281D3021FEF722FD3C
:1017B00000240E941020099001200890022005902A
:1017C0002846FEF77FFE002803D0EFF3108072B6A4
:1017D000FEE70494039402940720019001A8214697
:1017E000FEF7AEFD002803D0EFF3108072B6FEE7DF
:1017F000FFF766FCFEE70000F0B58FB00C92069193
:10180000F54B5C1CF54F3A46143A11680A94214096
:101810001160410010680891084310601068F04999
:1018200008401060012421041068079108431060EB
:101830001068184010601068EA49084010606103A1
:101840001068099108430D921060E74D0B943868B9
:10185000800721D43868C00600D5D0E138688007F9
:101860001AD43868C00600D5C9E13868800713D497
:101870003868C00600D5C2E1386880070CD43868E3
:10188000C006E4D5BBE12868000608D42868000635
:1018900005D42868000602D428680006F3D528205D
:1018A000A8812868000608D42868000605D428689E
:1018B000000602D428680006F3D54920A8812968CB
:1018C000090608D42968090605D42968090602D43E
:1018D00029680906F3D53223AB812968090608D4A3
:1018E0002968090605D42968090602D42968090669
:1018F000F3D543210E91A9812968090608D42968E6
:10190000090605D42968090602D429680906F3D511
:10191000AB812968090608D42968090605D4296815
:10192000090602D429680906F3D52D21A981296861
:10193000090608D42968090605D42968090602D4CD
:1019400029680906F3D53E21A9812968090608D42A
:101950002968090605D42968090602D429680906F8
:10196000F3D5A8812968090608D42968090605D491
:101970002968090602D429680906F3D55322AA81E9
:101980002968090608D42968090605D429680906C2
:1019900002D429680906F3D55226AE8129680906C2
:1019A00008D42968090605D42968090602D42968DB
:1019B0000906F3D52021A9812C68240608D42C68B7
:1019C000240605D42C68240602D42C682406F3D5FA
:1019D0002624AC812C68240608D42C68240605D45F
:1019E0002C68240602D42C682406F3D5A9812C681F
:1019F000240608D42C68240605D42C68240602D4B6
:101A00002C682406F3D5A8812C68240608D42C68F9
:101A1000240605D42C68240602D42C682406F3D5A9
:101A2000AB812B681B0608D42B681B0605D42B68DA
:101A30001B0602D42B681B06F3D50E9BAB812B68CB
:101A40001B0608D42B681B0605D42B681B0602D482
:101A50002B681B06F3D55F23AB812C68240608D4C2
:101A60002C68240605D42C68240602D42C6824068D
:101A7000F3D5A8812C68240608D42C68240605D444
:101A80002C68240602D42C682406F3D5AA812C687D
:101A9000240608D42C68240605D42C68240602D415
:101AA0002C682406F3D5AE812C68240608D42C6853
:101AB000240605D42C68240602D42C682406F3D509
:101AC000AB812B681B0608D42B681B0605D42B683A
:101AD0001B0602D42B681B06F3D55423AB812B685D
:101AE0001B0608D42B681B0605D42B681B0602D4E2
:101AF0002B681B06F3D55823AB812B681B0608D433
:101B00002B681B0605D42B681B0602D42B681B060A
:101B1000F3D5A8812868000608D42868000605D4F3
:101B20002868000602D428680006F3D5AA81286830
:101B3000000608D42868000605D42868000602D4E8
:101B400028680006F3D52920A8812868000608D453
:101B50002868000605D42868000602D42868000614
:101B6000F3D5A9812868000608D42868000605D4A2
:101B70002868000602D428680006F3D52120A88131
:101B80002868000608D42868000605D428680006DE
:101B900002D428680006F3D53D20A88128680006F5
:101BA00008D42868000605D42868000602D42868EE
:101BB0000006F3D5A9812868000600D5CAE1286887
:101BC000000600D5C6E12868000600D5C2E12868F5
:101BD0000006F0D5BEE1C046FFFBFFFF18580040ED
:101BE000FFFF80FFFFFFFFFD1C4800402868000644
:101BF00008D42868000605D42868000602D428689E
:101C00000006F3D52820A8812868000608D4286893
:101C1000000605D42868000602D428680006F3D51B
:101C20004922AA812868000608D42868000605D43D
:101C30002868000602D428680006F3D53223AB8159
:101C40002868000608D42868000605D4286800061D
:101C500002D428680006F3D543200E90A881296895
:101C6000090608D42968090605D42968090602D49A
:101C700029680906F3D5AB812968090608D42968C3
:101C8000090605D42968090602D429680906F3D58E
:101C90002D21A9812968090608D42968090605D4D7
:101CA0002968090602D429680906F3D53E21A981CD
:101CB0002968090608D42968090605D4296809068F
:101CC00002D429680906F3D5AA812968090608D42F
:101CD0002968090605D42968090602D42968090675
:101CE000F3D55324AC812968090608D4296809066C
:101CF00005D42968090602D429680906F3D55226B5
:101D0000AE812968090608D42968090605D429681E
:101D1000090602D429680906F3D52021A98128687B
:101D2000000608D42868000605D42868000602D4F6
:101D300028680006F3D52620A8812868000608D464
:101D40002868000605D42868000602D42868000622
:101D5000F3D5A9812868000608D42868000605D4B0
:101D60002868000602D428680006F3D5AA812868EE
:101D7000000608D42868000605D42868000602D4A6
:101D800028680006F3D5AB812868000608D42868C7
:101D9000000605D42868000602D428680006F3D59A
:101DA0000E98A8812868000608D42868000605D483
:101DB0002868000602D428680006F3D55F23AB81AB
:101DC0002868000608D42868000605D4286800069C
:101DD00002D428680006F3D5AA812868000608D432
:101DE0002868000605D42868000602D42868000682
:101DF000F3D5AC812868000608D42868000605D40D
:101E00002868000602D428680006F3D5AE81286849
:101E1000000608D42868000605D42868000602D405
:101E200028680006F3D5AB812868000608D4286826
:101E3000000605D42868000602D428680006F3D5F9
:101E40004E20A8812868000608D42868000605D41A
:101E50002868000602D428680006F3D54120A8812E
:101E60002868000608D42868000605D428680006FB
:101E700002D428680006F3D50E98A88128680006C9
:101E800008D42868000605D42868000602D428680B
:101E90000006F3D54B20A8812868000608D42868DE
:101EA000000605D42868000602D428680006F3D589
:101EB0004620A8812868000608D42868000605D4B2
:101EC0002868000602D428680006F3D52920A881D6
:101ED0002868000608D42868000605D4286800068B
:101EE00002D428680006F3D5A9812868000608D422
:101EF0002868000605D42868000602D42868000671
:101F0000F3D52120A8812868000608D42868000697
:101F100005D42868000602D428680006F3D53D20C1
:101F2000A8812868000608D42868000605D4286817
:101F3000000602D428680006F3D5A98128680006A7
:101F400008D42868000605D42868000602D428684A
:101F50000006F3D53020A8812868000608D4286838
:101F6000000605D42868000602D428680006F3D5C8
:101F70007426AE812868000608D42868000605D4B7
:101F80002868000602D428680006F3D56820A881D6
:101F90002868000608D42868000605D428680006CA
:101FA00002D428680006F3D56524AC8128680006B1
:101FB00008D42868000605D42868000602D42868DA
:101FC0000006F3D52021A9812868000608D42868D6
:101FD000000605D42868000602D428680006F3D558
:101FE0005420A8812868000608D42868000605D473
:101FF0002868000602D428680006F3D55820A88176
:102000002868000608D42868000605D42868000659
:1020100002D428680006F3D549200290A8812868D8
:10202000000608D42868000605D42868000602D4F3
:1020300028680006F3D553200190A881286800067F
:1020400008D42868000605D42868000602D4286849
:102050000006F3D5A9812868000608D42868000680
:1020600005D42868000602D428680006F3D56F203E
:10207000A8812868000608D42868000605D42868C6
:10208000000602D428680006F3D57222AA812868C7
:10209000000608D42868000605D42868000602D483
:1020A00028680006F3D5A9812868000608D42868A6
:1020B000000605D42868000602D428680006F3D577
:1020C0004E20A8812868000608D42868000605D498
:1020D0002868000602D428680006F3D54120A881AC
:1020E0002868000608D42868000605D42868000679
:1020F00002D428680006F3D54320A881286800068A
:1021000008D42868000605D42868000602D4286888
:102110000006F3D54B20A8812868000608D428685B
:10212000000605D42868000602D428680006F3D506
:102130004620A8812868000608D42868000605D42F
:102140002868000602D428680006F3D5A98128680B
:10215000000608D42868000605D42868000602D4C2
:1021600028680006F3D56620A8812868000608D4F0
:102170002868000605D42868000602D428680006EE
:10218000F3D56C20A8812868000608D428680006CA
:1021900005D42868000602D428680006F3D561201B
:1021A0000E90A8812868000608D42868000605D487
:1021B0002868000602D428680006F3D56720A881A5
:1021C0002868000608D42868000605D42868000698
:1021D00002D428680006F3D57323AB812868000673
:1021E00008D42868000605D42868000602D42868A8
:1021F0000006F3D5A9812868000608D428680006DF
:1022000005D42868000602D428680006F3D50E9885
:10221000A8812868000608D42868000605D4286824
:10222000000602D428680006F3D5AA8128680006B3
:1022300008D42868000605D42868000602D4286857
:102240000006F3D5AC812868000608D4286800068B
:1022500005D42868000602D428680006F3D5A981B1
:102260002868000608D42868000605D428680006F7
:1022700002D428680006F3D5AB812868000608D48C
:102280002868000605D42868000602D428680006DD
:10229000F3D5AC812868000608D42868000605D468
:1022A0002868000602D428680006F3D5AE812868A5
:1022B000000608D42868000605D42868000602D461
:1022C00028680006F3D50393049205912E20A88177
:1022D0002868000608D42868000605D42868000687
:1022E00002D428680006F3D50A200090A881386837
:1022F000102101404A424A41D3480378594259418A
:10230000114300D193E02868000608D4286800062D
:1023100005D42868000602D428680006F3D5029880
:10232000A8812868000608D42868000605D4286813
:10233000000602D428680006F3D50198A881286811
:10234000000608D42868000605D42868000602D4D0
:1023500028680006F3D55220A8812868000608D412
:102360002868000605D42868000602D428680006FC
:10237000F3D53A20A8812868000608D4286800060A
:1023800005D42868000602D428680006F3D5009812
:10239000A881386800F0ACFA06983861AB4857223B
:1023A000014606E0AA810A79091D03462C339942A9
:1023B00054D02B681B0608D42B681B0605D42B6849
:1023C0001B0602D42B681B06F3D5AA814A782B681A
:1023D0001B0608D42B681B0605D42B681B0602D4E9
:1023E0002B681B06F3D5AA818A782B681B0608D4B4
:1023F0002B681B0605D42B681B0602D42B681B0612
:10240000F3D5AA81CA782B681B06CBD42B681B0690
:10241000C8D42B681B06C5D42B681B06F3D5C1E7AF
:10242000D8B2A881481C4B78002B00D16BE701463D
:1024300028680006F4D428680006F1D4286800064D
:10244000EED428680006F3D5EAE73868400608D4D9
:102450003868400605D43868400602D4386840061B
:10246000F3D57B48014606E0AA81CE78C91C024616
:102470002732914228D02A68120608D42A68120608
:1024800005D42A68120602D42A681206F3D5AE8152
:102490004A782B681B0608D42B681B0605D42B68CA
:1024A0001B0602D42B681B06F3D5AA818A782B68F9
:1024B0001B06D9D42B681B06D6D42B681B06D3D495
:1024C0002B681B06F3D5CFE70D9908680A9A1040D0
:1024D00008600868089A1043086008685D4A104060
:1024E00008600868079A104308600868FB4A1040B3
:1024F000086001200A9080020A6802430A600868A6
:10250000F74A104008600868099A10430860F648C6
:10251000572302460C9906E0AB811379121D06463B
:102520003436B2424BD02E68360608D42E683606B2
:1025300005D42E68360602D42E683606F3D5AB8154
:1025400053782E68360608D42E68360605D42E68D1
:10255000360602D42E683606F3D5AB8193782E6802
:10256000360608D42E68360605D42E68360602D400
:102570002E683606F3D5AB81D3782E683606CBD4D9
:102580002E683606C8D42E683606C5D42E683606A0
:10259000F3D5C1E73868C00614D43868400711D4B1
:1025A0003868C0060ED4386840070BD43868C006B7
:1025B00008D43868400705D43868C00602D43868A3
:1025C0004007E7D5C948024602E0AB811479121DE5
:1025D0002B681B0608D42B681B0605D42B681B062A
:1025E00002D42B681B06F3D5AC8103462933541C57
:1025F0009C4231D053782C68240608D42C682406D9
:1026000005D42C68240602D42C682406F3D5AB81AB
:1026100093782C68240608D42C68240605D42C68EA
:10262000240602D42C682406F3D5AB81D3782C6819
:102630002406CAD42C682406C7D42C682406C4D423
:102640002C682406F3D5C0E70C000020462C0008B7
:102650004B2C0008FFFF80FF3C68A24B18784242D9
:102660004241E4060B9C00D51446002C00D19BE0AF
:102670002868000608D42868000605D428680006E3
:1026800002D428680006F3D50398A881049B286823
:10269000000608D42868000605D42868000602D47D
:1026A00028680006F3D57420A8812A68120608D489
:1026B0002A68120605D42A68120602D42A6812066D
:1026C000F3D50E9AAA812A68120608D42A6812063F
:1026D00005D42A68120602D42A681206F3D5AB8103
:1026E0002A68120608D42A68120605D42A68120637
:1026F00002D42A681206F3D5A8812868000608D4F7
:102700002868000605D42868000602D42868000658
:10271000F3D50598A8812868000608D42868000623
:1027200005D42868000602D428680006F3D5AB81DA
:102730002868000608D42868000605D42868000622
:1027400002D428680006F3D56520A8812868000611
:1027500008D42868000605D42868000602D4286832
:102760000006F3D50E98A8812868000608D42868CA
:10277000000605D42868000602D428680006F3D5B0
:102780006420A88100291DD003240C4004291CD2F8
:1027900000230A9A002C66D198E0C0B2A881531C8D
:1027A0005078002800D163E71A462B681B06F4D442
:1027B0002B681B06F1D42B681B06EED42B681B0676
:1027C000F3D5EAE700200A9A80E00E94FC2001404D
:1027D000002005E0FE68001DC1B29142114634D0D0
:1027E0003B685B0608D43B685B0605D43B685B0628
:1027F00002D43B685B06F3D5FB683C68640608D4EA
:102800003C68640605D43C68640602D43C686406EF
:10281000F3D5FC683D686D0608D43D686D0605D4A7
:102820003D686D0602D43D686D06F3D50A46FD6825
:102830003E687606CED43E687606CBD43E687606F1
:10284000C8D43E687606F3D5C4E718062106090AFF
:102850004018290289B24018F1B2081803020A9AF6
:102860000E9C002C32D03868400608D438684006E8
:1028700005D43868400602D438684006F3D5F868B5
:10288000C0B21843012C21D03968490608D43968F0
:10289000490605D43968490602D439684906F3D592
:1028A0000002F968C9B20818022C0FD0396849062D
:1028B00008D43968490605D43968490602D439680C
:1028C0004906F3D50002F968C9B2081891030D9BB7
:1028D0001A680A431A600FB0F0BDC046FFFBFFFF45
:1028E000FFFFFFFD0C000020732C00087E2C000869
:1028F00088B00122024030326946CA778207D20F7F
:1029000030328A774207D20F30324A770207D20F2D
:1029100030320A77C206D20F3032CA768206D20F20
:1029200030328A764206D20F30324A76C2B2D209AB
:1029300030320A76C205D20F3032CA758205D20F04
:1029400030328A754205D20F30324A750205D20FF5
:1029500030320A75C204D20F3032CA748204D20FE8
:1029600030328A744204D20F30324A740204D20FD9
:1029700030320A74C203D20F3032CA738203D20FCC
:1029800030328A734203D20F30324A73C202D20FFE
:102990003032CA720203D20F30320A738202D20F6F
:1029A00030328A724202D20F30324A720202D20FA1
:1029B00030320A72C201D20F3032CA718201D20F94
:1029C00030328A714201D20F30324A710201D20F85
:1029D00030320A71C200D20F3032CA708200D20F78
:1029E00030328A704200D20F30324A70C00F30301D
:1029F0000A4A04E090814878491C00280CD01368EA
:102A00001B06F7D413681B06F4D413681B06F1D415
:102A100013681B06F3D5EDE708B070471C4800406B
:102A200043088B421AD3002203098B4279D3030A4D
:102A30008B425ED3030B8B4242D3030C8B4227D3D2
:102A40000902FF2212BA030C8B4202D312120902AE
:102A500003D0030B8B4233D31AE0D3E0411A8041F9
:102A6000401C704703460B4371D443088B42F5D397
:102A7000002203098B4254D3030A8B4239D3030B40
:102A80008B421DD3030C8B4202D394466EE0090A9D
:102A9000C30B8B4201D3CB03C01A5241830B8B4231
:102AA00001D38B03C01A5241430B8B4201D34B031A
:102AB000C01A5241030B8B4201D30B03C01A52417F
:102AC000C30A8B4201D3CB02C01A5241830A8B4204
:102AD00001D38B02C01A5241430A8B4201D34B02ED
:102AE000C01A5241030A8B4201D30B02C01A524151
:102AF000CDD2C3098B4201D3CB01C01A5241830905
:102B00008B4201D38B01C01A524143098B4201D33E
:102B10004B01C01A524103098B4201D30B01C01A69
:102B20005241C3088B4201D3CB00C01A52418308E3
:102B30008B4201D38B00C01A524143088B4201D310
:102B40004B00C01A5241411A524110007047CA0F3F
:102B500000D04942031000D34042534000229C461B
:102B600003098B422DD3030A8B4212D38901FC2225
:102B700012BA030A8B420CD3890192118B4208D3FB
:102B8000890192118B4204D3890137D0921100E060
:102B90008909C3098B4201D3CB01C01A5241830971
:102BA0008B4201D38B01C01A524143098B4201D39E
:102BB0004B01C01A524103098B4201D30B01C01AC9
:102BC0005241C3088B4201D3CB00C01A5241830843
:102BD0008B4201D38B00C01A5241D9D243088B4299
:102BE00001D34B00C01A5241411A00D20146524152
:102BF000104663465B1000D34042704763465B104B
:102C000000D3404201B50021004201D0C94308462B
:102C1000C046C04602BD00000000000000000102E6
:102C200003040607080902030405060708090A0B3E
:102C30000C0D0E0F10100102030405060708090A07
:102C40000B0C0D0E0F1057616974207468652054C9
:102C50004320285472616E7366657220436F6D70F5
:102C60006C6574652920666C6167206973207365E3
:102C7000742E005761697420756E74696C206569E3
:102C800074686572206F66207468652052584E45DE
:102C9000206F72204E41434B4620666C6167732063
:102CA0006172652073657400C82C00080000002064
:102CB000200000001C010008E82C00082000002073
:102CC000680600003C01000801000000040000004C
:102CD00000127A00536C617665206E6F2072657306
:082CE000706F6E7365210000A6
:04000005080000C12E
:00000001FF
